:020000040800F2
:10000000408600209D010008A5010008A701000806
:10001000A9010008AB010008AD01000800000000C4
:10002000000000000000000000000000AF01000818
:10003000B101000800000000B3010008F3530008FC
:10004000B7010008B7010008B7010008B7010008B0
:10005000B7010008B7010008B7010008A10C0008AB
:10006000B7010008B7010008B7010008B701000890
:10007000B7010008B10B0008B7010008B70100087C
:10008000B7010008B7010008B7010008B701000870
:10009000B7010008B7010008B7010008F10C00081B
:1000A000B7010008B7010008B7010008B701000850
:1000B000B7010008B1550008195A0008B701000837
:1000C000B7010008B7010008B7010008B701000830
:1000D000B7010008AD6A0008B7010008BD6A000852
:1000E000B7010008B7010008B7010008B701000810
:1000F000B7010008B7010008B7010008B701000800
:10010000B7010008B7010008B7010008B7010008EF
:10011000B7010008B7010008B7010008B7010008DF
:10012000B7010008B7010008B7010008B7010008CF
:10013000B7010008B7010008B7010008B7010008BF
:10014000B7010008B7010008B7010008B7010008AF
:10015000B7010008B7010008B7010008B70100089F
:10016000B7010008B7010008B7010008B70100088F
:10017000B7010008B7010008B7010008000000003F
:10018000B7010008B7010008DFF80CD000F04EFB03
:10019000004800479D7400084086002006488047BC
:1001A00006480047FEE7FEE7FEE7FEE7FEE7FEE75C
:1001B000FEE7FEE7FEE7FEE7B1540008890100080C
:1001C0002DE9F05F0546002092469B46884606468C
:1001D000814640241BE0284641464746224600F01F
:1001E0003EFA53465A46C01A914110D3114618465A
:1001F000224600F025FA2D1A67EB01084F462246E9
:100200000120002100F01CFA17EB00094E41201ECE
:10021000A4F10104DFDC484631462A464346BDE8E6
:10022000F09FD2B201E000F8012B491EFBD27047CB
:100230000022F6E710B513460A4604461946FFF7B2
:10024000F0FF204610BD421C10F8011B0029FBD115
:10025000801A70472DE9FE4F804681EA0300C00FE7
:100260000C46009021F0004123F00045B8EB02005D
:10027000A94105D24046214690461C460B460246FF
:1002800023F00040104347D0270DC7F30A00C3F303
:100290000A510290401A019040286BDAC3F3130010
:1002A00040F4801B0098924620B10023D2EB030A51
:1002B00063EB0B0B01985946C0F14002504600F029
:1002C000BFF906460D4650465946019A00F0D7F947
:1002D00010EB08006141002487EA115284EAE773B9
:1002E0001A4340D0009A62B3019A012A4FEA07529A
:1002F00015DC001B61EB02014FF0004202EA0752DD
:10030000CDE90042001C41F5801132462B4600F039
:100310000EFA03B0BDE8F08F40462146F9E7001B16
:1003200061EB0201001C41F5801300185B412018AD
:10033000A2F5001747EB030140EAD570B6196D41ED
:1003400011E06D084FEA360645EAC0754FEA0752DC
:10035000001B61EB0201001C41F5801149084FEAC6
:1003600030000019514132462B4603B0BDE8F04F32
:1003700000F0CEB90098012240000023D0EB020229
:1003800063EBE073009821464FEAE074B8EB00009D
:1003900061EB0401E9E783F000435BE781F0004192
:1003A00058E72DE9FE4F81EA030404F0004421F0F0
:1003B000004100944FF0000B23F0004350EA010489
:1003C0005ED052EA03045BD0C3F30A54C1F30A556A
:1003D0002C44A4F2F3340194A0FB0254C1F31301A2
:1003E00041F48011C3F3130343F4801301FB02446F
:1003F00000FB034E840A970A44EA815447EA835774
:10040000A4FB076802958D0A05FB07854FEA932C2C
:1004100004FB0C542705029D4FEA065847EA16379D
:10042000B5EB08056EEB070C870E920E47EA8117B5
:1004300042EA8312A7FB0201B6EB0B0164EB000456
:100440002B0D43EA0C335E1844EB1C50DA46514640
:10045000E7FB0201C5F313044FEA0B3343EA1453DD
:100460004FEA0432019C43EA0603A4F10C0402940F
:10047000009CCDE900B400F05AF903B0BDE8F08F5C
:1004800000200146F9E72DE9F04D81EA030404F06C
:10049000004B21F0004514464FF0000A23F00041C4
:1004A00050EA050220D054EA01021DD0C5F30A57D4
:1004B0000246C5F31303C1F31300C1F30A5640F417
:1004C000801543F48013A7EB0608101BD64608F2EC
:1004D000FD3873EB050002D308F1010801E0921822
:1004E0005B41B8F1000F03DA00200146BDE8F08D52
:1004F00000204FF48011064684460EE0171B73EB74
:10050000050705D3121B63EB050306434CEA010CF8
:1005100049084FEA300092185B4150EA0107EDD1DB
:1005200052EA030012D082EA040083EA050108437C
:1005300005D0101BAB4106D20122002306E00022A9
:100540004FF0004302E06FF0010253101AEB060077
:100550004CEB085110EB0A0041EB0B01BDE8F04DEC
:1005600000F0D6B80EB5C10F80EAE0700844CA07A3
:10057000002140F233438DE80E000A460B4600F09E
:10058000D6F803B000BD00F0004230F000400AD0C1
:10059000C10D01F56071C0F3160042EA0151C208B5
:1005A00040071143704700200146704730B5041ED4
:1005B00071F1000404DB4FF00044404264EB0101A0
:1005C000141E73F1000405DB1C464FF00043524239
:1005D00063EB04038B4208BF824230BD01F000434D
:1005E00030B421F0004150EA010206D00A0DA2F514
:1005F0006072C1F31301002A02DC30BC0020704796
:10060000440F44EAC104C100E01830BC00EBC25002
:1006100000F047B830B50B460146002020220124E7
:1006200009E021FA02F59D4205D303FA02F5491BC0
:1006300004FA02F52844151EA2F10102F1DC30BDD6
:10064000202A04DB203A00FA02F100207047914092
:10065000C2F1200320FA03F3194390407047202A87
:1006600004DB203A21FA02F00021704721FA02F35C
:10067000D040C2F120029140084319467047202A19
:1006800006DBCB17203A41FA02F043EAE07306E0BA
:1006900041FA02F3D040C2F12002914008431946CA
:1006A00070470029A8BF7047401C490008BF20F0D0
:1006B0000100704710B4B0FA80FC00FA0CF050EA68
:1006C000010404BF10BC704749B1CCF1200421FAE9
:1006D00004F411FA0CF118BF012121430843A3EBE4
:1006E0000C01CB1D4FEA00614FEA102042BF0020F1
:1006F00010BC704700EBC35010440029A4BF10BCCD
:100700007047401C490008BF20F0010010BC704732
:1007100010B5141E73F1000408DA401C41F1000109
:1007200092185B411A4301D120F0010010BD2DE960
:10073000F04D92469B4611B1B1FA81F202E0B0FA57
:1007400080F220329046FFF77BFF04460F4640EAD6
:100750000A0041EA0B0153465A46084313D011469A
:1007600053EA010019D0C8F140025046FFF777FF65
:1007700005460E46504659464246FFF761FF08437C
:1007800005D0012004E020463946BDE8F08D002068
:10079000054346EAE0762C4337430A986305E40AAA
:1007A000A0EB08000022FD0A44EA47540A3002D5B3
:1007B00000200146E9E7010510196941DDE9084516
:1007C00000196941BDE8F04DA2E7C1F30A52C1F337
:1007D000130140F2FF3341F480119A4202DA002003
:1007E0000146704740F233439A42A2F2334202DCA0
:1007F0005242FFF734BFFFF723BF000030B5041E9D
:1008000071F1000404DB4FF00044404264EB01014D
:10081000141E73F1000405DB1C464FF000435242E6
:1008200063EB0403994208BF904230BD064C074D6C
:1008300006E0E06840F0010394E8070098471034B0
:10084000AC42F6D3FFF7A4FC787500089875000851
:1008500030B58C1810F8012B12F00F0301D110F8ED
:10086000013B120906D110F8012B03E010F8015BDF
:1008700001F8015B5B1EF9D101E001F8013B521E5A
:10088000FBD1A142E6D3002030BD000011B583B0FA
:100890005824FF20012103AA0B46CDE90021029034
:1008A00000222146014801F05FFA1FBD407F002071
:1008B00055494A6822F440324A604A6843681A43FC
:1008C0004A600268526822F4807203685A600268C3
:1008D0005368026943EA022203685A600268526858
:1008E00022F0407203685A600268526883681A43B3
:1008F00003685A600268926822F4006203689A6092
:1009000002689268C3681A4303689A603F4B826A20
:100910009A4218D00268926822F0706203689A6066
:1009200002689268836A1A4303689A600268926850
:1009300022F0405203689A6002689268C36A1A43C0
:1009400003689A600BE00268926822F070620368A4
:100950009A600268926822F0405203689A600268C6
:10096000926822F0020203689A6002689368027E2D
:1009700043EA420203689A602022125CA2B1026834
:10098000526842F4006203685A600268526822F4B6
:10099000604203685A6002685368426A521E43EA22
:1009A000423203685A6005E00268526822F400622D
:1009B00003685A600268D26A22F470020368DA623D
:1009C0000268D36A828B521E43EA02520368DA62DB
:1009D0000268926822F4007203689A600268936861
:1009E00090F8302043EA422203689A6002689268D5
:1009F00022F4806203689A6002689368426943EA5D
:100A0000822203689A607047002301400100000FB2
:100A100010B52DED068B2F490868002801DB014633
:100A200000E0414200EE101AF8EEC08A2948006842
:100A3000002827DB9FED280AC8EE800A10EE904AB6
:100A40002046FFF7A0FD41EC1A0B9FED240B53EC61
:100A5000102BFFF7A6FC41EC190BFFF7BFFD08EECA
:100A6000100AB7EE000A38EE000AB0EE408AB0EE87
:100A7000480A06F083F8B0EE408AB0EE480ABDECB2
:100A8000068B10BD9FED140AC8EE800A10EE904A46
:100A90002046FFF778FD41EC1A0B9FED100B53EC4D
:100AA000102BFFF77EFC41EC190BFFF797FD08EECA
:100AB000100AB7EE000A38EE000AB0EE408AB0EE37
:100AC000480A06F05BF8B0EE408AF7EE000A80EEC6
:100AD000880AD4E76800002000007A45B81E85EB3C
:100AE00051B8BE3F10B50024012211021C4801F08C
:100AF00053F8642000F0FAFD00224021194801F06B
:100B00004BF8642000F0F2FD01221102154801F0BB
:100B100043F8642000F0EAFD01228021114801F031
:100B20003BF8642000F0E2FD002280210D4801F036
:100B300033F8642000F0DAFD01228021094801F039
:100B40002BF8642000F0D2FD00BF02E000F00CF8AA
:100B5000641C0A2CFAD3002004F004FC10BD000031
:100B6000000402400008024038B50E4CE0B28DF897
:100B70000200200A8DF80100200C8DF800000022F0
:100B80006113094801F008F84FF6FF730322694624
:100B9000064801F0E7FE01221102034800F0FCFFC5
:100BA00038BD0000320020000004024054800020C4
:100BB00010B5024800F004FC10BD0000947F002036
:100BC0000146087810381823B0FBF3F20848805C1F
:100BD000C865032A05D908686FF30900001D8865F8
:100BE00003E008686FF309008865886D70470000AE
:100BF00058750008014600208A6A8B69CBB932B16A
:100C0000012A0DD0022A03D0032A10D10EE000BF22
:100C1000CB6A03F08073B3F1807F00D1012007E03D
:100C2000CB6AB3F1C07F00D1012001E000E000BF3A
:100C300034E08B69B3F5005F1AD132B1012A07D0D5
:100C4000022A03D0032A11D10AE000BF01200EE0DE
:100C5000CB6A03F08073B3F1807F00D1012006E0FE
:100C6000CB6AB3F1C07F00D1012000E000BF15E0E6
:100C700032B1012A05D0022A04D0032A0CD103E0A4
:100C800000BF00BF012008E0CB6A03F08073B3F11E
:100C9000807F00D1012000E000BF00BF704700004E
:100CA00010B5022000F062FE04F084F80A480068E3
:100CB000401C094908600948006818B908480068DC
:100CC0000649086007480068074908600020044991
:100CD00008600649086010BD9C0000208C000020C0
:100CE000680000205801002090000020E80000204B
:100CF00010B54FF4807000F039FE10BD00BFFEE764
:100D000070B504461D460023B5F5804F13D154F845
:100D100022300C480340D1E9000640EA06108E68F4
:100D200040EA06208E8940EA06408E69304303433C
:100D300044F8223003E06FF0704044F822000020B5
:100D400070BD00000000F0CF10B503460022086817
:100D500053F8202012480240D1E901042043CC6816
:100D600020430C6920434C6920438C692043CC69A3
:100D700020430C6A20434C6A20438C6A2043CC6A8F
:100D80002043CC6B20430C6B204302438868082827
:100D900001D142F04002086843F82020002010BD35
:100DA0008000F0FF30B503460024501C53F820406B
:100DB00004F04044D1E9000540EA05108D6840EA9E
:100DC00005208D8940EA0545088A401E45EA005500
:100DD000087D801E45EA00608D6928430443501C4D
:100DE00043F82040002030BD70B52DED0A8B002067
:100DF00000F06AF80446012000F066F8054628462F
:100E0000FFF7B0FB41EC1B0B9FED230B53EC102BBA
:100E1000FFF7C7FA41EC1A0B9FED210B53EC102B97
:100E2000FFF731FB41EC190B9FED1F0B53EC102B1F
:100E3000FFF7B7FA41EC180BFFF7D0FB1C4908602D
:100E40002046FFF78FFB41EC1C0B9FED130B53EC7F
:100E5000102BFFF7A6FA41EC1B0B9FED110B53EC87
:100E6000102BFFF710FB41EC1A0B9FED120B53EC0C
:100E7000102BFFF708FB41EC190B9FED100B53EC07
:100E8000102BFFF700FB41EC180BFFF7A7FB0D49F8
:100E90000860BDEC0A8B70BD6666666666660A40D1
:100EA000000000000000B0400000000000001840FA
:100EB000940000209A9999999999A93F00000000FF
:100EC00000002640980000201FB504460CB9002001
:100ED0000090012C01D101200090012001900720F9
:100EE000029000BF69460D4800F01AF80028F9D1B9
:100EF0000A4800F0B3F90A21084800F04DF90CB98E
:100F000000200090012C03D10120009000F0EEFBA6
:100F1000024800F0CBF880B204B010BDF87E00208B
:100F200038B502460020009000BF92F83C0001282E
:100F300001D1022038BD012082F83C0000BF0868C2
:100F4000092816D91068C0680C780A3C04EB4405DF
:100F50000724AC40A0431468E0600C780A3C04EB22
:100F600044048868A0401468E46820431468E06082
:100F700013E0106800690C7804EB44050724AC40CA
:100F8000A043146820610C7804EB44048868A040F6
:100F9000146824692043146820614868072817D220
:100FA0001068406B0C79641E04EB84051F24AC4070
:100FB000A04314686063088880B20C79641E04EB57
:100FC0008404A0401468646B20431468606331E0BB
:100FD00048680D2817D21068006B0C79E41F04EBE9
:100FE00084051F24AC40A04314682063088880B2A5
:100FF0000C79E41F04EB8404A0401468246B2043A4
:101000001468206316E01068C06A0C790D3C04EB8C
:1010100084051F24AC40A0431468E062088880B2B5
:101020000C790D3C04EB8404A0401468E46A20436E
:101030001468E062194B1A4C1068A04206D1086887
:10104000122803D1586840F480005860144C10688E
:10105000A0421CD10868102802D00868112816D1B7
:10106000586840F400005860086810280FD10D48F7
:1010700000680D4CB0FBF4F000EB800040000090E5
:1010800002E00098401E009000980028F9D100BFAF
:10109000002082F83C0000BF00BF4BE70023014066
:1010A000002001409001002040420F0001460868E6
:1010B000C06C704770B5044600250CB9012070BDA6
:1010C0001549A06A884200D000BF206C30B9204684
:1010D00000F024F80020606484F83C00206C00F0EC
:1010E000100088B9206C20F4885040F00200206481
:1010F0002046FFF7DDFB00206064206C20F002003A
:1011000040F00100206400E0012500BF002084F8C9
:101110003C0000BF2846D2E70100000F10B586B0A2
:101120000446142101A8FFF783F818492068884273
:101130002AD100BF002000901548006840F480705C
:10114000134908600846006800F48070009000BFF2
:1011500000BF00BF002000900D481438006840F028
:1011600001000B49143908600846006800F00100CE
:10117000009000BF00BF0320019002900020039068
:1011800001A9044800F000FC06B010BD0020014099
:10119000443802400000024070B504460D46002667
:1011A0002068806800F48060B0F5806F11D12068FD
:1011B000806800F48070B0F5807F0AD1206C40F028
:1011C0002000206400BF002084F83C0000BF012004
:1011D00070BD00F0E7FC064612E0681C80B125B146
:1011E00000F0E0FC801BA8420AD9206C40F004000B
:1011F000206400BF002084F83C0000BF0320E7E724
:101200002068006800F002000228E6D16FF01200AA
:1012100021680860206C40F40070206420688068B9
:1012200000F04050B8B9207EA8B92068C06A00F428
:10123000700020B12068806800F4806058B9206C8C
:1012400020F480702064206C00F4805018B9206C69
:1012500040F0010020640020BAE7000008B5014614
:101260000020009000BF91F83C00012801D102202D
:1012700008BD012081F83C0000BF0868806800F0CC
:101280000100A0B90868806840F001000B68986010
:101290003B4800683B4BB0FBF3F000EB4000009094
:1012A00002E00098401E009000980028F9D10868DC
:1012B000806800F0010000285FD0086C40F20163F4
:1012C000984340F4807008640868406800F48060C7
:1012D00028B1086C20F4005040F480500864086C79
:1012E00000F48050B0F5805F04D1486C20F0060017
:1012F000486401E00020486400BF002081F83C0001
:1013000000BF214A6FF022000B681860506800F09F
:101310001F0018BB1D4B0868984213D01C4B08686F
:10132000984204D1101D006800F01F0050B1194B05
:101330000868984221D11448001D006800F01F0081
:1013400010281AD20868806800F0405028B9086850
:10135000806840F080400B6898600EE00B4B086896
:1013600098420AD10868806800F0405028B908689F
:10137000806840F080400B689860002078E70000AB
:101380009001002040420F00002301400020014056
:101390000021014000220140014691F83500022859
:1013A00003D08020486501207047052081F8350072
:1013B0000868006820F001000A6810600020F3E768
:1013C000F8B50446002000908C4800684FF4165190
:1013D000B0FBF1F7A56D2E6894F85C1008208840EA
:1013E000304098B12068006800F0040070B12068B7
:1013F000006820F004002168086094F85C10082060
:101400008840A860606D40F00100606594F85C1051
:1014100001208840304068B12068406900F08000B9
:1014200040B194F85C1001208840A860606D40F0E5
:101430000200606594F85C1004208840304068B178
:101440002068006800F0020040B194F85C100420AD
:101450008840A860606D40F00400606594F85C10FE
:1014600010208840304078B32068006800F0080001
:1014700050B394F85C1010208840A8602068006881
:1014800000F4802080B12068006800F4002028B9B2
:10149000206CC8B12046216C884715E0A06C98B13B
:1014A0002046A16C88470FE02068006800F4807037
:1014B00028B92068006820F0080021680860206CC6
:1014C00010B12046216C884794F85C102020884099
:1014D0003040002865D02068006800F01000002827
:1014E0005FD094F85C1020208840A86094F8350004
:1014F000052828D12068006820F0160021680860BF
:101500002068406920F0800021684861206C08B99B
:10151000A06C28B12068006820F0080021680860ED
:1015200094F85C103F208840A86000BF002084F839
:10153000340000BF012084F83500206D10B1204632
:10154000216D8847F8BD2068006800F4802080B1D4
:101550002068006800F4002028B9606C10B12046B3
:10156000616C88471DE0E06BD8B12046E16B88478D
:1015700017E02068006800F4807068B9206800688F
:1015800020F010002168086000BF002084F83400BB
:1015900000BF012084F83500E06B10B12046E16BFC
:1015A0008847606D38B3606D00F00100F0B1052030
:1015B00084F835002068006820F001002168086088
:1015C00000BF0098401C0090B84200D905E0206898
:1015D000006800F001000028F3D100BF00BF002028
:1015E00084F8340000BF012084F83500E06C10B1AD
:1015F0002046E16C884700BFA4E70000900100206E
:101600002DE9F0410446002500F0CCFA074614B954
:101610000120BDE8F081606A00B100BF00BF00207A
:1016200084F8340000BF022084F835002068006888
:1016300020F00100216808600AE000F0B3FAC01B46
:10164000052805D920206065032084F83500E0E7EF
:101650002068006800F001000028EED120680568CD
:1016600021480540D4E901010843E16808432169A4
:10167000084361690843A1690843E1690843216A95
:1016800008430543606A042803D1D4E90B010843E9
:101690000543206805602068456925F00705606AF4
:1016A0000543606A04280DD1A06A0543E06A48B189
:1016B0002046FFF79FFA28B140206065012084F89A
:1016C0003500A6E7206845612046FFF779FA06460F
:1016D00094F85C103F208840B060002060650120D5
:1016E00084F83500002094E73F8010F011B5002405
:1016F00003E0009800F005F8641CB4F57A7FF8DB8D
:1017000018BD71B5002100204FF0E0256B695D1C0C
:101710004FF47A76B5FBF6F5009E05FB06F4002241
:101720004FF0E025A96910E04FF0E025A869884254
:101730000BD0884202D20D1A2A4402E01D1A0D4431
:101740002A440146A24200D300E0EDE700BF78BD85
:1017500000B587B0142102A8FEF76AFD234800688F
:1017600008B107B000BD01202049086000BF00207B
:1017700001901F48006840F001001D4908600846BC
:10178000006800F00100019000BF00BF41F23F007F
:1017900002900220039000200490032005900C206A
:1017A000069002A9134800F0EFF84FF680700290FF
:1017B0000220039000200490032005900C20069046
:1017C00002A90D4800F0E0F84CF2B370029002203C
:1017D000039000200490032005900C20069002A99D
:1017E000064800F0D1F800BFBBE7000088010020E8
:1017F000383802400014024000100240000C024041
:1018000070B5054601204449087044480078401CE2
:101810004249087001204249086000244FF0C0404E
:1018200004684048B0FBF4F03F4908603F48006856
:101830000968401A3E4908603E480078012805D1F1
:101840003D480068401C3C49086004E03A48006894
:10185000401E39490860002038490860384800783F
:10186000052857D12D48007836490968884251DB50
:1018700000202A49087003F055FA2E480078012804
:1018800025D1314800683149096808443049096860
:10189000084429490968884219DA03202849087050
:1018A0002C480068401C2B49086000202A49086029
:1018B00001202A49086000224102294800F06CF901
:1018C00028480068012802D10020264908601948EC
:1018D000007802281ED1244800681C490968084481
:1018E0001B490968081A14490968884212DD032057
:1018F0001349087017480068401C1649086000200A
:101900001549086001201549086000224102144869
:1019100000F042F970BD00006C0000206D00002056
:1019200004010020DCB70002640000202C0000202D
:10193000240100206E00002068000020EC00002040
:10194000B0000020500000203C00002024000020B7
:101950004C000020E80000209C000020AC0000208B
:1019600000040240C00000204000002010B50446E2
:1019700004480068204020B1024804602046FFF778
:101980003FFF10BD143C0140F8B502460B46002550
:10199000002400200021DCE0012606FA01F51E6883
:1019A00006EA0504AC4273D15E68022E02D05E687E
:1019B000122E13D1CF0802F1200656F827004E0749
:1019C000F70E0F26BE40B0434F07FF0E1E69BE4004
:1019D0003043CF0802F1200646F8270010684F0078
:1019E0000326BE40B0431E7906F003064F00BE40FA
:1019F000304310605E68012E08D05E68022E05D06C
:101A00005E68112E02D05E68122E13D190684F00CE
:101A10000326BE40B0434F00DE68BE4030439060B6
:101A2000506801268E40B0431E79C6F300168E40E2
:101A300030435060D0684F000326BE40B0434F0093
:101A40009E68BE403043D0605E6806F08056B6F1B6
:101A5000805F7DD100BF00260096404E366846F478
:101A600080463E4F3E603E46366806F4804600960D
:101A700000BF00BF3A4E8F0856F827008E07370F79
:101A80000F26BE40B043374EB24202D1002624E0BA
:101A90005EE0354EB24201D101261EE0334EB24225
:101AA00001D1022619E0324EB24201D1032614E0E0
:101AB000304EB24201D104260FE02F4EB24201D186
:101AC00005260AE02D4EB24201D1062605E02C4E35
:101AD000B24201D1072600E008268F073F0FBE4023
:101AE00030431F4E8F0846F82700264E3068A0432B
:101AF0005E6806F48036B6F5803F00D12043214E63
:101B00003060361D3068A0435E6806F40036B6F5D6
:101B1000003F00D120431B4E361D3060361D30681B
:101B2000A0435E6806F48016B6F5801F00D12043FE
:101B3000144E08363060361D3068A0435E6806F4E7
:101B40000016B6F5001F00D120430E4E0C36306053
:101B5000491C1029FFF420AFF8BD000044380240B2
:101B60000838014000000240000402400008024022
:101B7000000C024000100240001402400018024015
:101B8000001C0240003C0140024613690B400BB1AF
:101B9000012000E0002070470AB1816101E00B04E0
:101BA0008361704701480068704700000000002012
:101BB00070B504460CB9012070BD94F83D0028B9F9
:101BC000002084F83C00204600F080F9242084F8AE
:101BD0003D002068006820F001002168086000F0E6
:101BE0009BFB05465C496068884206D85B48854295
:101BF00001D2012007E0002005E05948854201D2CA
:101C0000012000E00020012800D1D5E75548B5FBB0
:101C1000F0F62068406820F03F00304321684860BB
:101C20004D496068884201D8701C07E04FF49670F7
:101C300070434FF47A71B0FBF1F0401C2168096ADF
:101C400021F03F01084321680862434960688842E7
:101C500014D8681E61684900B0FBF1F0401CC0F365
:101C60000B00042801D204203DE0681E6168490091
:101C7000B0FBF1F0401CC0F30B0034E0A06838B9B1
:101C8000681E616801EB4101B0FBF1F0401C0AE005
:101C9000681E616801EBC10202EB0111B0FBF1F0BB
:101CA000401C40F48040C0F30B0008B901201AE04A
:101CB000A06848B9681E616801EB4101B0FBF1F012
:101CC000401CC0F30B000CE0681E616801EBC10210
:101CD00002EB0111B0FBF1F0401CC0F30B0040F42B
:101CE000804040F400402168C9694CF6FF7291437E
:101CF00008432168C861D4E90701084321680968DD
:101D000021F0C001084321680860D4E903100843AA
:101D10002168896848F2FF3291430843216888604E
:101D2000D4E9050108432168C96821F0FF0108438F
:101D30002168C8602068006840F0010021680860E0
:101D400000202064202084F83D000020206384F8D7
:101D50003E0000BF30E70000A086010080841E0026
:101D600000093D0040420F002DE9FC5F04460F468C
:101D700090469946DDE90CAB0E9EFFF713FF054632
:101D800094F83D0020287DD1192301224D49204699
:101D9000009501F0B7FF10B10220BDE8FC9F00BF25
:101DA00094F83C00012801D10220F6E7012084F8D4
:101DB0003C0000BF2068006800F0010028B92068DE
:101DC000006840F00100216808602068006820F485
:101DD000006021680860212084F83D00402084F8DC
:101DE0003E0000202064C4F824A0A4F82AB0608D2E
:101DF00020853548E0624B46424639462046CDE9CB
:101E0000006501F0EBFE08B10120C6E731E02A468B
:101E10003146204602F01BF850B1206C042805D151
:101E20002068006840F40070216808600120B4E771
:101E3000606A007821680861606A401C6062208DD9
:101E4000401E2085608D401E608520684069C0F37B
:101E5000800070B1208D60B1606A007821680861EF
:101E6000606A401C6062208D401E2085608D401E8F
:101E70006085208D0028CAD12A463146204601F0CF
:101E800013FF00E01CE050B1206C042805D120684D
:101E9000006840F400702168086001207DE7206838
:101EA000006840F4007021680860202084F83D003C
:101EB000002084F83E0000BF84F83C0000BF6CE7BF
:101EC00002206AE7020010000000FFFF10B586B094
:101ED0000446142101A8FEF7ABF93949206888426D
:101EE0006CD100BF002000903648006840F002002E
:101EF000344908600846006800F00200009000BF06
:101F000000BF4FF440600190122002900120039026
:101F1000032004900420059001A92B48FFF734FD0D
:101F200000BF0020009027481030006840F4800077
:101F30002449103108600846006800F480000090D1
:101F400000BF00BF2148224908604FF06060486030
:101F500000211F488160C1604FF480610161002150
:101F600041618161C16101624162FFF749FB08B1D2
:101F7000FEF7C4FE00BF1648A063846300BF134889
:101F80007830144908604FF0606048604021114883
:101F900081600021C1604FF48061016100214161D5
:101FA0008161C16101624162FFF72AFB08B1FEF75E
:101FB000A5FE00BF07486063846300BF06B010BD84
:101FC00000580040303802400004024040600240A7
:101FD000947F0020F47F00200348006803490978BB
:101FE00008440149086070470000002008000020F4
:101FF00010B50D48006840F400700B4908600846B1
:10200000006840F4806008600846006840F4807012
:102010000860032000F0A6F8002000F007F800F0A8
:102020002BF8002010BD0000003C024070B50446B3
:102030000E4800784FF47A71B1FBF0F00C49096852
:10204000B1FBF0F5284600F08FFD08B1012070BD0E
:10205000102C07D200222146501E00F045F80548FA
:10206000046001E00120F2E70020F0E70800002012
:10207000900100200400002008B500BF002000905F
:102080001048006840F480400E4908600846006827
:1020900000F48040009000BF00BF00BF002000900F
:1020A000081F006840F08050091F0860084600685B
:1020B00000F08050009000BF00BF042000F052F8F4
:1020C00008BD00004438024001460846002809DBEC
:1020D00000F01F0301229A4043099B0003F1E02313
:1020E000C3F8002100BF70472DE9F05F80460D4620
:1020F0001646002704F026FD074639462A46334691
:1021000001F00700C0F1070ABAF1040F02D94FF03D
:10211000040A01E0C0F1070AD14600F1040ABAF14D
:10212000070F02D24FF0000A01E0A0F1030AD446E3
:102130004FF0010A0AFA09FAAAF1010A0AEA020AA8
:102140000AFA0CFA4FF0010B0BFA0CFBABF1010B86
:102150000BEA030B4AEA0B042146404604F0FAFC62
:10216000BDE8F09F00BF00F00702064B19684FF66C
:10217000FF031940044B0B4343EA0221014B196052
:1021800000BF70470CED00E00000FA0570B5044692
:102190000D460CB9012070BD5848006800F00F00D2
:1021A000A84209D255490D700846006800F00F009A
:1021B000A84201D00120EEE7207800F002000228BA
:1021C0001DD1207800F00400042805D14C48006897
:1021D00040F4E0504A490860207800F008000828E0
:1021E00005D14748006840F46040454908604448CC
:1021F000006820F0F000A168084341490860207899
:1022000000F00100A8B36068012807D13C480838F5
:102210000068C0F34040B8B90120BCE760680228FC
:1022200002D06068032807D1354808380068C0F339
:10223000406048B90120AEE7314808380068C0F373
:10224000400008B90120A6E72D48006820F00300EF
:10225000616808432A490860FFF7A4FC064609E0C4
:10226000FFF7A0FC801B41F28831884202D903208D
:1022700091E707E02248006800F00C006168B0EBCD
:10228000810FEDD11D48006800F00F00A84209D968
:102290001A490D700846006800F00F00A84201D0EE
:1022A000012078E7207800F00400042807D11448C2
:1022B000006820F4E050E168084311490860207884
:1022C00000F00800082808D10D48006820F460409C
:1022D000216940EAC1000A49086000F03DF8084958
:1022E0000968C1F30311074A515CC84006490860F8
:1022F0000020FFF79BFE00204DE70000003C02405D
:10230000083802406075000890010020014800680C
:10231000704700009001002000B5FFF7F7FF044967
:102320000968C1F38221034A515CC84000BD000026
:10233000083802407075000800B5FFF7E7FF044950
:102340000968C1F34231034A515CC84000BD000036
:1023500008380240707500082DE9F0470024002578
:102360000026A1462548006800F00C0020B1042892
:1023700005D008283AD105E0DFF8849039E0DFF88D
:10238000849036E01D48001F006800F03F041B48A1
:10239000001F006800F4800078B11A481749091F2F
:1023A0000968C1F38811A0FB017001462246002391
:1023B0003846FDF705FF05460EE011480F49091F95
:1023C0000968C1F38811A0FB017001462246002371
:1023D0003846FDF7F5FE05460848001F0068C0F3C3
:1023E0000140401C4600B5FBF6F902E0DFF8109012
:1023F00000BF00BF4846BDE8F08700000838024033
:102400000024F40040787D01F8B504460CB90120A1
:10241000F8BD207800F00100002874D0F948006869
:1024200000F00C0004280DD0F648006800F00C0005
:10243000082813D1F348001F006800F48000B0F5AD
:10244000800F0BD1EF4808380068C0F340400028E7
:1024500059D06068002856D10120D9E700BF6068D4
:10246000B0F5803F08D1E7480838006840F4803074
:10247000E449083908601EE06068B0F5A02F0DD16E
:10248000E0480838006840F48020DE4908390860D8
:102490000846006840F4803008600CE0D9480838ED
:1024A000006820F48030D749083908600846006881
:1024B00020F48020086000BF606890B1FFF772FBD5
:1024C000054606E0FFF76EFB401B642801D9032098
:1024D0009EE7CC4808380068C0F340400028F1D09F
:1024E00011E0FFF75FFB054606E0FFF75BFB401BD3
:1024F000642801D903208BE7C24808380068C0F37C
:1025000040400028F1D1207800F0020002285FD17D
:10251000BC48006800F00C0058B1BA48006800F0F0
:102520000C0008281CD1B748001F006800F4800088
:10253000B0B9B44808380068C0F3400020B1E06882
:10254000012801D0012063E7AE480838006820F078
:10255000F800216940EAC100AA490839086037E05B
:10256000E06800B30120A8490860FFF71BFB05469F
:1025700006E0FFF717FB401B022801D9032047E7BD
:10258000A04808380068C0F340000028F1D09D48FA
:102590000838006820F0F800216940EAC100994934
:1025A0000839086014E0002097490860FFF7FAFA3C
:1025B000054606E0FFF7F6FA401B022801D9032082
:1025C00026E7904808380068C0F340000028F1D1A1
:1025D000207800F0080008282CD16069A8B10120FB
:1025E0008A490860FFF7DEFA054606E0FFF7DAFAE7
:1025F000401B022801D903200AE782486C3000689A
:10260000C0F340000028F1D014E000207F490860AA
:10261000FFF7C8FA054606E0FFF7C4FA401B022898
:1026200001D90320F4E677486C300068C0F340001D
:102630000028F1D1207800F00400042870D1002691
:1026400070483830006800F0805090B900BF00201A
:1026500000906C483830006840F08050694938314B
:1026600008600846006800F08050009000BF00BF7E
:1026700001266748006800F48070B0B964480068BB
:1026800040F4807062490860FFF78CFA054606E066
:10269000FFF788FA401B022801D90320B8E65C48FE
:1026A000006800F480700028F2D000BFA068012804
:1026B00008D154486830006840F001005149683141
:1026C00008601DE0A06805280DD14E4868300068FC
:1026D00040F004004B49683108600846006840F04B
:1026E000010008600CE047486830006820F00100F5
:1026F0004449683108600846006820F0040008601A
:1027000000BFA068A8B1FFF74DFA054609E0FFF742
:1027100049FA401B41F28831884202D9032077E60A
:1027200026E0384868300068C0F340000028EED04A
:1027300013E0FFF737FA054608E0FFF733FA401BCE
:1027400041F28831884201D9032061E62D48683082
:102750000068C0F340000028EFD1012E07D12948BE
:102760003830006820F0805026493831086000BFBA
:10277000A069B8B32348006800F00C0008285ED0B8
:10278000A069022846D100201F490866FFF70AFA0F
:10279000054606E0FFF706FA401B022801D9032090
:1027A00036E6184808380068C0F340600028F1D1C8
:1027B000D4E907010843616A40EA81110122A06A55
:1027C000C2EB500041EA00412C20005D41EA00606C
:1027D0000C49091F086001200B490866FFF7E2F960
:1027E000054607E02DE0FFF7DDF9401B022801D97F
:1027F00003200DE6034808380068C0F34060002855
:10280000F1D01EE00838024000004742800E4742E7
:102810000070004000200C490866FFF7C3F9054628
:1028200006E0FFF7BFF9401B022801D90320EFE5BE
:1028300006480068C0F340600028F2D101E00120A2
:10284000E6E50020E4E500000000474200380240D1
:1028500010B504460CB9012010BD606A00B900BF74
:102860000021A16294F8510028B9002084F850009A
:10287000204600F033F8022084F8510020680068F8
:1028800020F0400021680860D4E901010843E168B4
:1028900008432169084361690843218B01F40071F1
:1028A0000843E1690843216A0843A16A0843216893
:1028B00008600421A06901EA1040616A08432168A8
:1028C00048602068C06920F400602168C861002069
:1028D0006065012084F851000020BDE710B586B086
:1028E0000446142101A8FDF7A3FC1B492068884277
:1028F0002FD100BF002000901848006840F480509D
:10290000164908600846006800F48050009000BF37
:1029100000BF00BF0020009010481438006840F04D
:1029200001000E49143908600846006800F00100F3
:10293000009000BF00BFB020019002200290002054
:102940000390032004900520059001A90448FFF797
:102950001BF806B010BD00000030014044380240B2
:10296000000002402DE9F84F0446884616461D46F1
:102970004FF0000A00BF94F85000012802D1022055
:10298000BDE8F88F012084F8500000BFFFF70AF976
:102990000746B14694F85100012802D04FF0020AD0
:1029A000A7E0B8F1000F00D016B94FF0010AA0E07F
:1029B000032084F8510000206065C4F83080A686AA
:1029C000E686A063A087E08760642064A068B0F515
:1029D000004F05D12068006840F4804021680860FD
:1029E0002068006800F04000402805D0206800689A
:1029F00040F0400021680860E068B0F5006F2FD11A
:102A0000606810B1B9F1010F09D1206B008821680D
:102A1000C860206B801C2063E08E401EE0861BE0B7
:102A20002068806800F0020002280AD1206B00882C
:102A30002168C860206B801C2063E08E401EE08609
:102A40000AE0FFF7AFF8C01BA84201D3681C00B929
:102A500015B94FF0030A4CE0E08E0028E0D12EE0DB
:102A6000606810B1B9F1010F09D1206B00782168BD
:102A70000873206B401C2063E08E401EE0861BE044
:102A80002068806800F0020002280AD1206B0078DC
:102A900021680873206B401C2063E08E401EE08696
:102AA0000AE0FFF77FF8C01BA84201D3681C00B9F9
:102AB00015B94FF0030A1CE0E08E0028E0D13A4639
:102AC0002946204602F0A8FB08B120206065A068D6
:102AD00050B900BF002000902068C06800902068B6
:102AE0008068009000BF00BF606D08B14FF0010A20
:102AF00000BF012084F8510000BF002084F850007E
:102B000000BF50463CE770B504460E4615460CB96A
:102B1000012070BD94F8490028B9002084F84800CD
:102B2000204600F01CF804F108012068FEF70CF9BB
:102B30003146A2682068FEF735F92946236BD4E9AF
:102B40000102FEF7DDF8A168206850F8210040F08E
:102B50000100A268216841F822000020D9E710B5E1
:102B60000446FEF7F5FD10BD70B504462546681E07
:102B7000B0F1807F01D301200FE0681E4FF0E0210B
:102B800048610F214FF0FF3003F0E4FF00204FF0C9
:102B9000E021886107200861002070BD7047704700
:102BA00010B50346002200BF93F83C00012801D174
:102BB000022010BD012083F83C0000BF22F0FF007E
:102BC000CC6840EA040222F440708C6840EA0402B7
:102BD00022F480604C6840EA040222F400600C6831
:102BE00040EA040222F480500C6940EA040222F414
:102BF00000504C6940EA040222F48040CC6940EA6B
:102C000004021868426400BF002083F83C0000BF43
:102C100000BFCEE710B5024600BF92F83C00012885
:102C200001D1022010BD012082F83C0000BF02202B
:102C300082F83D00106843681068846823F07003D0
:102C40000868034324F08004486804431068436024
:102C500010688460012082F83D0000BF002082F8E7
:102C60003C0000BF00BFDDE710B504460CB90120F1
:102C700010BD94F83D0028B9002084F83C0020469F
:102C800000F00CF8022084F83D00211D206803F0BC
:102C9000DDFA012084F83D000020E9E738B504465C
:102CA0002849206888420FD100BF002000902648A4
:102CB000006840F00100244908600846006800F000
:102CC0000100009000BF3CE02049206888421AD1F2
:102CD00000BF002000901C48001F006840F0020068
:102CE0001949091F08600846006800F002000090BA
:102CF00000BF00BF002203211D20FFF7F5F91D20B2
:102D0000FFF7E2F91DE012492068884219D100BF9F
:102D1000002000900C48001F006840F004000A49A1
:102D2000091F08600846006800F00400009000BF1A
:102D300000BF002204211E20FFF7D6F91E20FFF756
:102D4000C3F938BD0000014044380240000400408F
:102D50000008004001460868C06840F001000B68A8
:102D6000D8600868806800F00702062A05D0086865
:102D7000006840F001000B681860002070472DE9E2
:102D8000F04104460D4600BF94F83C00012802D1F2
:102D90000220BDE8F081012084F83C0000BF022041
:102DA00084F83D002068866826F0770626F47F4682
:102DB000206886602868502833D00CDC202850D04A
:102DC00004DC00284BD0102851D149E0302849D0EC
:102DD00040284CD139E060282DD0702807D0B0F5BC
:102DE000805F03D0B0F5005F41D10DE040E0D5E950
:102DF00002136A68206803F0A6FA2068866846F025
:102E000077062068866033E0D5E902136A68206897
:102E100003F099FA2068806840F480402168886057
:102E200026E0EA686968206803F07EFB502120688C
:102E300003F094FA1CE0EA686968206803F087FBF5
:102E40006021206803F08AFA12E0EA686968206865
:102E500003F06AFB4021206803F080FA08E000BF1D
:102E600000BF00BF2968206803F078FA00E000BFC7
:102E700000BF012084F83D0000BF002084F83C0022
:102E800000BF00BF85E7704710B5044620680069A1
:102E9000C0F34000D8B12068C068C0F34000B0B1B2
:102EA0006FF00200216808610120207720688069A6
:102EB00000F0030018B12046FFF7E5FF05E02046CB
:102EC00000F0E0F8204600F07DF90020207720682F
:102ED0000069C0F38000D8B12068C068C0F38000EA
:102EE000B0B16FF0040021680861022020772068EB
:102EF000806900F4407018B12046FFF7C4FF05E078
:102F0000204600F0BFF8204600F05CF90020207752
:102F100020680069C0F3C000D8B12068C068C0F361
:102F2000C000B0B16FF0080021680861042020776C
:102F30002068C06900F0030018B12046FFF7A3FF26
:102F400005E0204600F09EF8204600F03BF9002006
:102F5000207720680069C0F30010D8B12068C068ED
:102F6000C0F30010B0B16FF01000216808610820B4
:102F700020772068C06900F4407018B12046FFF740
:102F800082FF05E0204600F07DF8204600F01AF9A7
:102F9000002020772068006900F0010058B1206807
:102FA000C06800F0010030B16FF0010021680861D5
:102FB000204600F035F920680069C0F3C01058B110
:102FC0002068C068C0F3C01030B16FF08000216885
:102FD00008612046FFF7E2FD20680069C0F3801019
:102FE00058B12068C068C0F3801030B16FF0400065
:102FF00021680861204600F014F920680069C0F3D8
:10300000401058B12068C068C0F3401030B16FF074
:103010002000216808612046FFF7C1FD10BD0000B7
:1030200010B586B00446142101A8FDF701F9124934
:10303000206888421DD100BF002000900F48006822
:1030400040F001000D4908600846006800F00100EA
:10305000009000BF00BF8815019002200290002060
:103060000390032004900120059001A90448FEF775
:103070008BFC06B010BD000000000140303802405B
:1030800000000240704770B504460D46164600BF6A
:1030900094F83C00012801D1022070BD012084F881
:1030A0003C0000BF022084F83D0036B1042E1BD046
:1030B000082E31D00C2E5ED145E02946206803F061
:1030C00057F92068806940F008002168886120680D
:1030D000806920F00400216888612068806929697E
:1030E00008432168886147E02946206803F078F9A1
:1030F0002068806940F400602168886120688069E8
:1031000020F480602168886120688069296940EA2C
:103110000120216888612FE02946206803F09EF98C
:103120002068C06940F008002168C8612068C06953
:1031300020F004002168C8612068C069296908433B
:103140002168C86118E02946206803F0C3F92068A7
:10315000C06940F400602168C8612068C06920F43B
:1031600080602168C8612068C069296940EA01203F
:103170002168C86100E000BF00BF012084F83D0065
:1031800000BF002084F83C0000BF00BF85E710B5F9
:1031900004460CB9012010BD94F83D0028B9002068
:1031A00084F83C00204600F00CF8022084F83D0032
:1031B000211D206803F04AF8012084F83D0000201A
:1031C000E9E770477047000070B504460E460122DB
:1031D0003146206803F0A6F80F492068884203D0E2
:1031E0000E492068884201D1012000E0002028B16A
:1031F0002068406C40F40040216848642068806882
:1032000000F00705062D05D02068006840F0010099
:1032100021680860002070BD0000014000040140EA
:1032200070477047704700002DE9F047044620685A
:1032300005682068C668206847694FF00008C146E5
:1032400005F00F08B8F1000F0AD105F0200038B1E1
:1032500006F0200020B1204603F0B7F9BDE8F08762
:10326000B8F1000F6ED007F0010018B906F49070A5
:10327000002867D005F0010030B106F4807018B165
:10328000E06B40F00100E06305F0040030B107F0AE
:10329000010018B1E06B40F00200E06305F00200AD
:1032A00030B107F0010018B1E06B40F00400E063BA
:1032B00005F0080030B107F0010018B1E06B40F0F4
:1032C0000800E063E06B70B305F0200028B106F061
:1032D000200010B1204603F078F920684069C0F35F
:1032E0008019E06B00F0080010B9B9F1000F23D08D
:1032F000204603F04AF92068406900F04000402869
:1033000016D12068406920F0400021684861606B58
:1033100050B11748616B0865606BFEF73DF810B15E
:10332000606B016D88470CE02046FFF77BFF08E0EB
:103330002046FFF777FF04E02046FFF773FF0020E9
:10334000E0638BE705F0800030B106F0800018B133
:10335000204603F041FB81E705F0400030B106F064
:10336000400018B1204603F020F977E700BF75E769
:103370007765000810B504460CB9012010BDA0699E
:1033800000B100E000BF94F8390028B9002084F8AB
:103390003800204600F028F8242084F839002068FE
:1033A000C06820F400502168C860204603F060F92E
:1033B0002068006920F49040216808612068406915
:1033C00020F02A00216848612068C06840F400505D
:1033D0002168C8600020E063202084F8390084F868
:1033E0003A000020CAE7000010B586B00446142158
:1033F00001A8FCF71DFF3F492068884239D100BF72
:10340000002000903C48006840F010003A490860F5
:103410000846006800F01000009000BF00BF00BF29
:103420000020009034481438006840F00100324910
:10343000143908600846006800F00100009000BFE1
:1034400000BF4FF4C0600190022002900120039061
:10345000032004900720059001A92848FEF794FA5C
:10346000002211462520FEF73FFE2520FEF72CFE08
:103470003EE02349206888423AD100BF00200090F6
:103480001D48001F006840F480201B49091F086088
:103490000846006800F48020009000BF00BF00BF15
:1034A0000020009014481438006840F004001249CD
:1034B000143908600846006800F00400009000BF5E
:1034C00000BF4FF440600190022002900120039061
:1034D000032004900720059001A90A48FEF754FA3A
:1034E000002211462720FEF7FFFD2720FEF7ECFD06
:1034F00006B010BD001001404438024000000240F8
:10350000004800400008024010B5034693F83A0016
:1035100020282FD101B10AB9012010BD00BF93F8B6
:103520003800012801D10220F7E7012083F8380094
:1035300000BF99629A85DA850020D863222083F83B
:103540003A0000BF002083F8380000BF1868C06848
:1035500040F480701C68E0601868406940F0010029
:103560001C6860611868C06840F020001C68E0605A
:103570000020D2E70220D0E770B50546FE4885421C
:1035800072D1FE480078401CFC490870084600785B
:1035900001280ADDFA480078392803DCF848007869
:1035A000302802DA0120F5490870F5480178F3481F
:1035B0000078401EF34A1154F0480078062872D172
:1035C0000020EE49087010464078303842F2107101
:1035D00010FB01F110468078303800EB4002C2EB5E
:1035E000C01001EBC001E748C078303800EBC002E2
:1035F00002EB001001EB8001E2480079303800EB6B
:10360000800001EB4001DF48407930380C18DD487C
:1036100000784D2806D0DC480068012802D100203F
:10362000D9490860D7480078492872D018DC442866
:1036300070D00CDC412837D004DC2B2826D02D2874
:103640001DD129E0422878D04328F9D180E04528CF
:1036500071D0462870D0472841D04828F0D1A3E047
:103660004A380A280BD200E0C6E0DFE800F03B054C
:10367000244254BE3FB30C090020C4490870B4E092
:10368000C3480460B1E0C3480460AEE00E20BF4907
:103690000870C1480460A8E00E20BC490870604270
:1036A000BD490860A1E0A2E0BC480460014608787A
:1036B000FDF7ECF899E0B3484079302804D10122B5
:1036C0001102B748FEF768FAAE484079312805D1B3
:1036D00000224FF48071B248FEF75EFA85E0B148EF
:1036E000046082E00620A94908707EE0AE480460CC
:1036F0007BE04D20AD49AE4A12688854AC48006862
:10370000401CAB490860A0480068401C9E49086006
:103710006BE054E027E04E20A449A54A1268885483
:10372000A3480068401CA24908604FF0FF3096494A
:1037300008605AE001E021E02BE042209B499C4ACE
:10374000126888549A480068401C994908604CE007
:1037500043209649964A1268885495480068401C50
:103760009349086041E044209049914A1268885486
:103770008F480068401C8E49086036E045208B4920
:103780008B4A126888548A480068401C884908603F
:103790002BE046208549864A126888548448006890
:1037A000401C8349086020E048208049804A126814
:1037B00088547F480068401C7D49086015E0492016
:1037C0007A497B4A1268885479480068401C7849D5
:1037D00008600AE051207549754A12688854744897
:1037E0000068401C7249086000BF00BF00BF012292
:1037F00063496148FFF788FE6E48854270D16E4884
:103800000078401C6C4908700846007801280ADDE1
:103810006A480078392803DC68480078302802DAE2
:103820000120654908706548017863480078401EAA
:10383000634A11546048007806287DD100205E4913
:10384000087010464078303842F2107110FB01F1D8
:1038500010468078303800EB4002C2EBC01001EB1C
:10386000C0015748C078303800EBC00202EB0010AE
:1038700001EB800152480079303800EB800001EB09
:1038800040014F48407930380C184D4800784D2899
:1038900006D03D480068012802D100203A4908605E
:1038A000474800782B38292819D2DFE800F020F7A4
:1038B00026F7F7F7F7F7F7F7F7F7F7F7F7F7F7F769
:1038C000F7F7F7F72D9AA5B0BBC64AD1DC4D1534F2
:1038D000548BF351E71D1A0000202C490870DDE0DD
:1038E000E3E02B480460D9E02A480460D6E00E20CB
:1038F0002649087028480460D0E00E20234908704B
:10390000604225490860C9E02448046001460878FF
:10391000FCF7BCFFC2E02A484079302804D10122DC
:1039200011021F48FEF738F925484079312807D1A0
:1039300000224FF4807100E0B2E01948FEF72CF944
:10394000ACE018480460A9E0062010490870A5E022
:1039500015480460A2E04D211448154A12688154AC
:1039600013480068401C1249086007480068401C62
:103970000549086092E000006C810020D70000201B
:10398000D6000020D0000020C0000020B0000020A1
:10399000180000201C0000204C0000201400002013
:1039A000001402402000002024000020C401002058
:1039B000A4000020AC810020DF000020DE000020F9
:1039C000D80000204E203949394A126888543848B6
:1039D0000068401C364908604FF0FF3035490860E8
:1039E0005CE042213148324A126881543048006814
:1039F000401C2F49086051E043202C492C4A126892
:103A000088542B480068401C2949086046E044213E
:103A10002648274A1268815425480068401C2449DA
:103A200008603BE045202149214A1268885420481B
:103A30000068401C1E49086030E046211B481C4AB3
:103A4000126881541A480068401C1949086025E032
:103A500048211648164A1268815415480068401CCF
:103A6000134908601AE049211048114A126881542C
:103A70000F480068401C0E4908600FE051200B49B8
:103A80000B4A126888540A480068401C08490860BC
:103A900004E0FFE701200849087000BF00BF00BF35
:103AA000012206490648FFF72FFD70BDC401002022
:103AB000A4000020C000002084010020DE000020BF
:103AC000AC8100202DE9F84304460D4616461F46FA
:103AD0004FF0000994F8390020285CD105B116B9DF
:103AE0000120BDE8F88300BF94F83800012801D117
:103AF0000220F6E7012084F8380000BF0020E063D0
:103B0000212084F83900FEF74DF88146A684E6842A
:103B10002BE0E08C401EE084A068B0F5805F16D1F9
:103B20004B46002280212046009702F089FF08B111
:103B30000320D6E7A846B8F80000C0F308002168C3
:103B40004860206908B9AD1C0FE06D1C0DE04B46C4
:103B5000002280212046009702F072FF08B1032066
:103B6000BFE715F8010B21684860E08C0028D0D130
:103B70004B46002240212046009702F061FF08B129
:103B80000320AEE7202084F8390000BF002084F82D
:103B9000380000BFA5E70220A3E770470146086888
:103BA0004069C0F38020B0B16FF480600A68506152
:103BB00000200863202081F83D00002081F83E00AD
:103BC000086C40F00400086400BF002081F83C004D
:103BD00000BF012070470020FCE700002DE9F843FA
:103BE0000446884615469946DDE90867206800685E
:103BF00040F4807021680860334600224FF00111C4
:103C00002046009700F07EF810B10120BDE8F8834F
:103C100008F0FE00216808613B46324621492046F3
:103C200000F0B3F808B10120F0E700BF00200090D9
:103C300020684069009020688069009000BF00BF44
:103C40003A463146204600F002F950B1206C042873
:103C500005D12068006840F40070216808600120E8
:103C6000D4E7B9F1010F03D1E8B22168086117E088
:103C7000C5F30720216808613A463146204600F026
:103C8000E6F850B1206C042805D12068006840F4A3
:103C90000070216808600120B8E7E8B22168086177
:103CA0000020B3E70200010070B504460D46164639
:103CB00020E02046FFF772FF08B1012070BD681CAC
:103CC000C0B1FDF76FFF801BA84200D895B9002056
:103CD0002063202084F83D00002084F83E00206C02
:103CE00040F02000206400BF002084F83C0000BFAA
:103CF0000120E3E720684069C0F380000028D8D0A5
:103D00000020DBE72DE9F04104460D4617461E462C
:103D1000DDF818801CE0701CD0B1FDF743FFA0EB6C
:103D20000800B04200D89EB900202063202084F80B
:103D30003D00002084F83E00206C40F0200020640C
:103D400000BF002084F83C0000BF0120BDE8F081E6
:103D5000C5F3074001280AD120684069A9B208408C
:103D6000A9B2884201D101200BE0002009E02068BF
:103D70008069A9B20840A9B2884201D1012000E0BF
:103D80000020B842C7D00020E0E72DE9F04104460A
:103D90000D4616461F463DE020684069C0F380206E
:103DA000E8B12068006840F40070216808606FF492
:103DB00080602168486100202063202084F83D0055
:103DC000002084F83E00206C40F00400206400BF16
:103DD000002084F83C0000BF0120BDE8F081701C89
:103DE000C0B1FDF7DFFEC01BB04200D896B900207D
:103DF0002063202084F83D00002084F83E00206CE1
:103E000040F02000206400BF002084F83C0000BF88
:103E10000120E2E7C5F3074001280AD12068406984
:103E2000A9B20840A9B2884201D101200BE00020CC
:103E300009E020688069A9B20840A9B2884201D18E
:103E4000012000E000200028A6D00020C5E770B5C2
:103E500004460D46164620E02046FFF79FFE08B1B7
:103E6000012070BD681CC0B1FDF79CFE801BA842FC
:103E700000D895B900202063202084F83D00002060
:103E800084F83E00206C40F02000206400BF002039
:103E900084F83C0000BF0120E3E720684069C0F3DC
:103EA000C0100028D8D00020DBE700001FB500209C
:103EB00000900190029003901548164908604FF455
:103EC000803048600021134881600161017680F8EC
:103ED0002010C162104981620021C1600121C161CD
:103EE000002180F8301001214161FDF7E3F808B1AD
:103EF000FCF704FF002000900120019000200290B8
:103F000069460448FDF70CF808B1FCF7F7FE1FBD41
:103F100000200140F87E00200100000F08B500BF1E
:103F2000002000900E48006840F400100C49086022
:103F30000846006800F40010009000BF00BF002297
:103F400011460D20FEF7D0F80D20FEF7BDF8002237
:103F500011462F20FEF7C8F82F20FEF7B5F808BD50
:103F60003038024000B587B01C216846FCF760F984
:103F70004FF02040164908601648486000208860CD
:103F800000211348C160016110214161002181615C
:103F9000C161016241628162C16201634163816307
:103FA00041640F2000900190FF2002900F200390A9
:103FB00010200490112005900020069000226946F0
:103FC0000348FEF7A0FD08B1FCF798FE07B000BD5E
:103FD000EC810020040100A000B587B0142102A8E4
:103FE000FCF726F900BF002001909148006840F0DE
:103FF00020008F4908600846006800F0200001900A
:1040000000BF00BF00BF002001900846006840F0DC
:10401000800008600846006800F08000019000BF42
:1040200000BF00BF002001900846006840F0040077
:1040300008600846006800F00400019000BF00BF5F
:1040400000BF002001900846006840F001000860B1
:104050000846006800F00100019000BF00BF00BFEB
:10406000002001900846006840F0100008600846F3
:10407000006800F01000019000BF00BF00BF0020EA
:1040800001900846006840F0020008600846006899
:1040900000F00200019000BF00BF00BF00200190AF
:1040A0000846006840F0080008600846006800F014
:1040B0000800019000BF00BF00BF0020019008462B
:1040C000006840F0400008600846006800F04000CA
:1040D000019000BF00BF002289155648FDF75CFD26
:1040E000012206215448FDF757FD00224FF4D0610C
:1040F0005248FDF751FD00224FF4E0714E48FDF7A4
:104100004BFD00224FF470714D48FDF745FD4FF413
:1041100080700290012003900220049000200590FE
:1041200002A94448FDF730FC0620029001200390CC
:1041300004900220059002A93F48FDF725FC40208D
:104140000290002003900120049002A93B48FDF753
:104150001BFC80200290012003900020049003208B
:10416000059002A93548FDF70FFC4FF480700290CE
:10417000344803900020049002A93048FDF704FC65
:104180004FF4E0700290012003900020049005900D
:1041900002A92948FDF7F8FB4FF4C0600290012006
:1041A000039000200490059002A92448FDF7ECFB41
:1041B0004FF43070029001200390002004900320FF
:1041C000059002A91E48FDF7DFFB4FF480700290B6
:1041D0000120039000200490059002A91848FDF7E3
:1041E000D3FB01200290002003900120049002A93B
:1041F0001548FDF7C9FB02200290124803900020E9
:10420000049002A91048FDF7BFFB002202210720FD
:10421000FDF76AFF0720FDF757FF00220121172055
:10422000FDF762FF1720FDF74FFF07B000BD00004C
:1042300030380240001402400008024000180240DA
:1042400000040240000011100010024010B50B489D
:104250000B4908600B484860002109488160C16033
:104260004FF480410161002141618161C1610162BE
:10427000FDF79EFC08B1FCF741FD10BD0058004061
:10428000407F0020A086010010B50F480F4908604C
:104290004FF4827048604FF400410C488160002167
:1042A000C160016101214161890481611021C16105
:1042B00000210162416281620A21C162FEF7C8FAEF
:1042C00008B1FCF71BFD10BD0030014054800020F8
:1042D00000B595B0002011901290139014900F909B
:1042E00010901C2108A8FBF7A3FF20216846FBF7CC
:1042F0009FFF2B482B490860002048600021294877
:1043000081600421C1600021016141618161FEF78A
:10431000ABFC08B1FCF7F2FC4FF48050119011A9EE
:104320002048FEF72CFD08B1FCF7E8FC1D48FEF71D
:104330002EFF08B1FCF7E2FC00200F9010900FA9AF
:104340001848FEF767FC08B1FCF7D8FC602008901D
:104350000220099000200A900B900C900D900E9076
:10436000002208A90F48FEF78EFE08B1FCF7C6FC34
:104370000020009001900290039004904FF40050B0
:1043800005900020079069460648FEF709FC08B131
:10439000FCF7B4FC0348FEF743FE15B000BD000077
:1043A00000000140AC80002000B587B000200390E1
:1043B00004900590069001900290144814490860FA
:1043C000542048600021124881600121C160002111
:1043D00001618161FEF748FC08B1FCF78FFC4FF4E6
:1043E0008050039003A90A48FEF7C9FC08B1FCF706
:1043F00085FC00200190029001A90548FEF70AFC07
:1044000008B1FCF77BFC07B000BD000000040040D1
:10441000EC80002000B587B0002003900490059048
:104420000690019002901448144908605420486096
:104430000021124881600121C16000210161816178
:10444000FEF712FC08B1FCF759FC4FF480500390C2
:1044500003A90A48FEF793FC08B1FCF74FFC0020C3
:104460000190029001A90548FEF7D4FB08B1FCF7C2
:1044700045FC07B000BD0000000800402C81002072
:1044800010B50C480C4908604FF4E1304860002139
:1044900009488160C16001610C2141610021816195
:1044A0004FF40041C161FEF765FF08B1FCF726FC3F
:1044B00010BD0000001001406C81002010B50C48B8
:1044C0000C4908604FF4E1304860002109488160E0
:1044D000C16001610C214161002181614FF4004103
:1044E000C161FEF747FF08B1FCF708FC10BD0000F2
:1044F00000480040AC8100202DE9F0472DED048BF1
:1045000092B004460D4690461E464FF0000A002722
:1045100046B9D5F800904B46424650A105A802F096
:10452000FDFA00BF012E15D1D5F80090B9F1000FAA
:1045300005DB4B4642464BA105A802F0EFFAB9F164
:10454000000F06DAC9F10003424648A105A802F0AF
:10455000E5FA00BF022E10D195ED000A10EE109A78
:104560004846FCF710F841EC180B8DED008B4246E5
:1045700040A105A802F0D2FA00BF032E2AD195ED82
:10458000000AB0EE408AB5EEC08AF1EE10FA0CDBFC
:1045900018EE100AFBF7F7FF41EC190B8DED009BAD
:1045A000424636A105A802F0B9FAB5EEC08AF1EE8E
:1045B00010FA0ED2B1EE480A10EE100AFBF7E3FF34
:1045C00041EC190B8DED009B42462EA105A802F08F
:1045D000A5FA00BF4FF0000906E005A810F8090091
:1045E0003844C7B209F1010905A8FBF72CFE48457C
:1045F000F3D83A4625A102A802F090FA4FF000093C
:104600000EE0B9F1000F03D13F2004F8090005E0E6
:10461000A9F1010005A9085C04F8090009F10109E4
:1046200005A8FBF710FE401C4845EAD805A8FBF793
:104630000AFE401C9DF80910215405A8FBF703FE53
:10464000801C2321215405A8FBF7FDFD00F1030A7E
:10465000504612B0BDEC048BBDE8F087256325649D
:104660000000000025632B256400000025632D2534
:1046700064000000256325660000000025632B25EB
:104680006600000025632D256600000025303258A5
:104690000000000010B514480078012809D1134823
:1046A00000681349096808441049086000F02AF8B6
:1046B0000CE00D480078022808D10C4800680D492C
:1046C0000968401A0949086000F01CF80A48007897
:1046D00048B10A48406809490860094800684860CC
:1046E00000200549087010BD6E000020B8000020B1
:1046F000540000205C0000206C0000209801002085
:104700006400002010B52DED028B2D4800682D4966
:104710000968484300EE100AB8EEC00A2A48D0EDF6
:10472000000A20EE200AB2EE041AC0EE010A274861
:1047300090ED000AB8EEC00A70EE800A244890EDB1
:10474000000AB8EEC00A30EE800ABDEEC00A214869
:1047500080ED000AFCF75CF9B0EE408A1D48006865
:104760001D490968401A00EE100AF8EEC00A1A48FE
:1047700090ED000AB8EEC00A00EE880ABDEEC00A4D
:10478000144880ED000A00681449096849428842CB
:1047900004DA1248006840420E4908600D4800687B
:1047A0000E490968884203DD0C4800680949086021
:1047B0000848006800F0D6FDBDEC028B10BD00007B
:1047C0005001002068000020280000204C0100203B
:1047D000B800002058010020900000204400002074
:1047E0003048006830490968401A304908602D484F
:1047F00000682D490968022202FB11002C49096852
:1048000008442C4908602848006829490860254860
:104810000068254908602548006827490968484319
:1048200000EE100AB8EEC00A2448D0ED000A20EECF
:10483000200ABDEEC00A1D4880ED000A1948006834
:104840001F490968484300EE100AB8EEC00A1B4829
:10485000D0ED000A20EE200ABDEEC00A114880ED1E
:10486000000A1448006817490968484300EE100A16
:10487000B8EEC00A1148D0ED000A20EE200ABDEEC5
:10488000C00A0C4880ED000A08480068054909681C
:104890000844084909680844642190FBF1F00A497A
:1048A000086070472401002030010020280100200A
:1048B00034010020200100204001002028000020B9
:1048C00044010020480100202C01002040F6C410C3
:1048D000E1490860C820E149086040F25F50E049C2
:1048E00008600220DF490860B7EE000ADE4880ED6C
:1048F000000ADE48006841F64C52811A90426ED0A0
:104900000ADC012817D0A0F6C410002868D0A0F651
:10491000C41000287ED1DFE0A1F6C41000287AD0B0
:10492000A0F51C50103800285BD0A0F59C40203822
:104930000028EFD128E0CE48CE4908606420CE4957
:10494000086040F2DC50CD4908606420CC49086022
:1049500040F2DC50CB4908600520CB4908604FF499
:10496000AA60CA4908604420C94908608820C9492A
:104970000860FA20C8490860BD48C84908604FF47B
:104980007A60C7490860FCE049F64040B9490860D0
:104990003220B94908604FF49670B8490860322057
:1049A000B74908604FF49670B64908600520B649CB
:1049B000086040F2D640B54908604420B449086018
:1049C0008820B4490860B420B349086049F64040E3
:1049D000B24908604FF47A60B1490860D1E053E011
:1049E000A2E044F62060A34908600520A2490860BF
:1049F0009620A24908600520A14908609620A14997
:104A000008600220A049086040F24C409F490860BD
:104A1000222001E0B0E00FE09D4908609D49086058
:104A2000FA209D49086044F620609C4908604FF4D4
:104A30007A609B490860A4E042F210708D490860DA
:104A400004208D49086096208C49086004208C4918
:104A5000086096208B49086001208B49086040F26D
:104A60004C408A49086022208949086089490860C9
:104A7000FA208949086042F21070884908604FF4B2
:104A80007A60874908607CE041F64C5079490860BB
:104A90000420794908601920784908600420784981
:104AA000086019207749086001207749086040F2C2
:104AB0004C407649086022207549086075490860B5
:104AC000FA207549086041F6E8407449086040F6EC
:104AD000B8307349086054E041F288306549086095
:104AE00003206549086096206449086003206449F2
:104AF000086096206349086001206349086040F21D
:104B00004E206249086014206149086061490860CC
:104B1000FA206149086041F224306049086040F69B
:104B2000B8305F4908602CE040F6C4105149086075
:104B3000032051490860FA20504908600320504979
:104B40000860FA204F49086001204F49086040F290
:104B50004E204E4908600E204D4908604D490860BE
:104B6000FA204D4908604FF416604C49086040F245
:104B7000DC504B49086004E041F64C503B4908606A
:104B800000BF00BF47480068502863DC46480078F3
:104B900002282DD145480068012829D149F6404016
:104BA000344908601E20344908604FF49670334938
:104BB00008601E20324908604FF496703149086041
:104BC00005203149086040F2D64030490860442051
:104BD0002F49086088202F490860B4202E490860BA
:104BE00049F640402D4908604FF47A602C4908602E
:104BF0002D48007801282DD12C480068022829D1A1
:104C000049F640401B4908601E201B4908604FF4CC
:104C100096701A4908601E20194908604FF4967072
:104C20001849086005201849086040F2D640174925
:104C30000860442016490860882016490860B4209E
:104C40001549086049F64040144908604FF47A60FD
:104C50001349086070470000F0000020F4000020B5
:104C6000F8000020FC000020280000201800002090
:104C7000701101002C00002054000020580000207A
:104C80005C00002060000020500000204001002057
:104C90004401002048010020500100203000002085
:104CA000340000201C0000206E00002020000020A6
:104CB00000200E4908600E4908600E4908600E4940
:104CC00008600E4908600E4908600E4908600E49E8
:104CD00008600E4908600E4908600E480E490860D9
:104CE0000E4908600E49086070470000300100203E
:104CF00034010020380100203C0100202001002068
:104D000024010020280100202C010020BC000020EC
:104D10004C010020FFFF0700540100205C0100202F
:104D20004400002010B5FFF75BFD1D4800681D49D9
:104D30000968884204DD1B480068194908600BE0D7
:104D400017480068174909684942884204DA15483B
:104D5000006840421249086013480078012805D1D4
:104D6000124800680E490968441804E00F480068BA
:104D70000B490968441A0E4800684042844203DA2D
:104D80000B480068444205E009480068844201DDA0
:104D90000748046805480460FFF7B4FC012010BD13
:104DA0002C0100205C0100206E000020B8000020D3
:104DB000540100202E480068282825D006DC05284C
:104DC0000CD00A2812D014283AD116E0502822D04C
:104DD000A02827D0B0F5A07F32D12AE04FF4804040
:104DE000244908604000244908602DE04FF48040C9
:104DF000204908602049086026E04FF400501D4912
:104E000008601D4908601FE04FF480501949086090
:104E10001949086018E04FF4006016490860164907
:104E2000086011E04FF48060124908601249086080
:104E30000AE04FF400700F4908600F49086003E072
:104E400028200B49086000BF00BF0C4800680228FA
:104E500006DB4FF40070074908600749086006E068
:104E600006480068002802DA0020044908607047FC
:104E70001C0000203C00002040000020C00000205A
:104E800070B52DED0A8B04460D4694ED000AB0EE88
:104E9000408A95ED000A10EE106A3046FBF773FB6E
:104EA00041EC1C0B9FED2D0B53EC102BFBF779FA0B
:104EB00041EC1B0B9FED2B0B53EC102BFBF76BFA0C
:104EC00041EC1A0BFBF78AFB09EE100A274890ED1C
:104ED000000A20EE080A20EE080A2548D0ED000A54
:104EE00000EE880A2348D0ED000A30EE200AF0EEEA
:104EF000409AB3EE090A39EE401A1F4890ED000AB5
:104F00001E48D0ED000A00EE880AF0EE690A41EE74
:104F1000000AF0EE608A9FED1A0AF4EEC08AF1EE04
:104F200010FA03DD9FED160AF0EE408A18EE900AA3
:104F3000FBF729FB41EC1A0B9FED120B53EC102BE6
:104F4000FBF734FB03D29FED110AF0EE408A85EDAA
:104F5000009AC4ED008ABDEC0A8B70BD7B14AE478D
:104F6000E17A843F52B81E85EBD1434068010020AE
:104F700064010020600100206C010020700100200D
:104F80000000C8429A9999999999B93FCDCCCC3DE6
:104F90002DE9F047064688469146002400F0A4F823
:104FA000B9F1000F03D0B9F1010F0CD105E00320D6
:104FB00000F0E0F82044C4B205E0052000F0DAF883
:104FC0002044C4B200BF00BF00F0BEF9012280211E
:104FD0001548FCF7E1FD00F0A9F9002707E0802162
:104FE0001148FCF7D1FD054605B903E07F1C0F48C9
:104FF0008742F4D300BF80210B48FCF7C5FD05466E
:105000000DB1601CC4B2012000F012F870700120D4
:1050100000F00EF83070002000F00AF888F8000068
:105020002046BDE8F0870000000402400071020045
:105030002DE9F0410646002700F086F90122802183
:105040002848FCF7A9FD0A20FCF75BFB00F06EF98D
:1050500080241BE0012240212248FCF79DFD0A200C
:10506000FCF74FFB80211F48FCF78EFD054605B17C
:105070002743002240211B48FCF78EFD0A20FCF745
:1050800040FB204604EBD071C1F34704002CE1DC67
:1050900000F05AF92EB1002280211248FCF77CFD65
:1050A00004E0012280210F48FCF776FD0122402117
:1050B0000C48FCF771FD0A20FCF723FB002240217D
:1050C0000848FCF769FD0A20FCF71BFB0122802140
:1050D0000448FCF761FD0A20FCF713FB3846BDE8E5
:1050E000F08100000004024010B500F02DF901220B
:1050F00080211F48FCF750FD0A20FCF702FB00222C
:1051000040211B48FCF748FD0A20FCF7FAFA01226F
:1051100040211748FCF740FD0A20FCF7F2FA002274
:1051200080211348FCF738FD0A20FCF7EAFA002238
:1051300040210F48FCF730FD0A20FCF7E2FA01227B
:1051400040210B48FCF728FD0A20FCF7DAFA01227F
:1051500080210748FCF720FD0A20FCF7D2FA002244
:1051600040210348FCF718FD0A20FCF7CAFA10BDDD
:105170000004024070B50546002600F0E5F88024E2
:1051800025E004EA050028B1012280212148FCF72E
:1051900003FD04E0002280211E48FCF7FDFC0A20EC
:1051A000FCF7AFFA012240211A48FCF7F5FC0A206F
:1051B000FCF7A7FA002240211648FCF7EDFC0A2074
:1051C000FCF79FFA204604EBD071C1F34704002C92
:1051D000D7DC012280210F48FCF7DEFC00F0A6F8A6
:1051E0000A20FCF78EFA012240210A48FCF7D4FC81
:1051F0000A20FCF786FA80210648FCF7C5FC064623
:10520000002240210348FCF7C7FC0A20FCF779FA8A
:10521000304670BD000402407CB504460D4616467B
:10522000164800681821B0FBF1F01549B0FBF1F009
:105230004FF47A71484301906068B0F5827F0DD1D8
:105240002B46002280212046009600F01BF898B1E2
:10525000606D40F02000606503207CBD00BF0198B8
:1052600000B908E00198401E019020688068C0F3F2
:10527000C0100028F3D100BF0020EEE7900100200D
:1052800040420F002DE9F04104460E4617461D46E8
:10529000DDF818803EE0681CD8B3FCF783FCA0EB77
:1052A0000800A84200D2A5BB2068406820F0E000BA
:1052B000216848606068B0F5827F0DD1A068B0F5C4
:1052C000004F03D0A068B0F5806F05D1206800685A
:1052D00020F0400021680860A06AB0F5005F0DD1A1
:1052E00000BF2068006820F4005021680860206832
:1052F000006840F400502168086000BF012084F875
:10530000510000BF002084F8500000BF0320BDE81A
:10531000F081FFE7206880683040B04201D1012071
:1053200000E00020B842B6D10020F0E700B585B01B
:10533000802000900020019069460248FCF724FB81
:1053400005B000BD0004024000B585B0802000908B
:105350000120019069460248FCF716FB05B000BD2C
:105360000004024010B504460249081B01F0AEFBE0
:1053700010BD0000FFFF07002DE9F04186B0054693
:105380000E46002402AF0DF10408002203A905A86F
:10539000FFF7FEFD0444012203A904A8FFF7F8FD6E
:1053A00004449DF814109DF8150001EB002000EE58
:1053B000100AB8EEC00A8DED020A9DF810109DF893
:1053C000110001EB002000EE100AB8EEC00A8DEDCE
:1053D000010A39464046FFF753FD9DED020A85ED6F
:1053E000000A9DED010A86ED000A204606B0BDE8E0
:1053F000F08110B5FCF7F0FD10BD000000B593B0D2
:10540000302107A8FAF714FF142102A8FAF710FFB9
:1054100000BF002001902448006840F080502249DD
:1054200008600846006800F08050019000BF00BF8F
:1054300000BF002001901D48006840F480401B49D7
:1054400008600846006800F48040019000BF00BF7B
:10545000012007900004089002200D9041050E9154
:1054600019210F914FF4A87110910221119104217B
:10547000129107A8FCF7C8FF08B1FBF73FFC0F200B
:10548000029002200390002004904FF4A050059059
:105490004FF480500690052102A8FCF777FE08B172
:1054A000FBF72CFC13B000BD4038024000700040F8
:1054B0001448006840F470001249086012480068FF
:1054C00040F001001049086000200F4908310860D1
:1054D0000D4800680D4908400B4908600C48091D3B
:1054E0000860081F006820F48020091F0860002061
:1054F00005490C3108604FF00060024980390860AE
:105500007047000088ED00E000380240FFFFF6FE23
:105510001030002410B50020FFF724FF01201349AC
:105520000870FFF7C5FB00201149086011490860A9
:105530001149086011490860114908801149086043
:105540001149086011490860114908601149086053
:105550001148006811490860114800681149086045
:105560000020114908601149086010BD6E0000203C
:1055700064000020680000208C0000204C00002007
:1055800048000020B8000020C4000020CC0000200B
:105590007C000020800000200C000020180000206B
:1055A000100000201C000020E8000020EC0000207B
:1055B00030B587B0F348FDF767FCF348007806285C
:1055C0007DD100224FF40071F048FCF7E5FA00208D
:1055D000FFF7C8FEEE480068B0F57A7F6FDA4FF447
:1055E000FA60EB490860002412E0EA4850F82420F1
:1055F000E9A1684601F092FA6846FAF724FE85B2FE
:105600004FF47A732A466946E448FEF75BFA641C55
:10561000E34800688442E8DBE2A1684601F07EFAD4
:105620006846FAF710FE84B24FF47A732246694650
:10563000DA48FEF747FA002412E0DC4850F824204C
:10564000D5A1684601F06AFA6846FAF7FCFD85B212
:105650004FF47A732A466946D048FEF733FA641C41
:10566000CF4800688442E8DBCEA1684601F056FAD4
:105670006846FAF7E8FD84B24FF47A732246694629
:10568000C648FEF71FFA002412E0C94850F824204B
:10569000C1A1684601F042FA6846FAF7D4FD85B226
:1056A0004FF47A732A466946BC48FEF70BFA641C2D
:1056B000BB4800688442E8DBBAA1684600E026E007
:1056C00001F02CFA6846FAF7BEFD84B24FF47A7303
:1056D00022466946B148FEF7F5F9002412E0B548C4
:1056E00050F82420ACA1684601F018FA6846FAF791
:1056F000AAFD85B24FF47A732A466946A748FEF799
:10570000E1F9641CA64800688442E8DB00BF9E48BB
:10571000007860B9FFF7FEFEFFF7D8F800224FF4DB
:1057200000719A48FCF738FA0E209749087096489D
:1057300000780E2828D10020FFF714FE01209E4992
:105740000870FFF7B5FA00209C4908609C49086082
:105750009C4908609C4908609C4908609C49086015
:105760009C49086041F22C209B4908609B490860D5
:1057700000224FF400718548FCF70EFA0D20824993
:1057800008700120964908607F4800780D2812D1E2
:1057900094480068401C9349086008460068924994
:1057A000884205D100208F4908600420764908709E
:1057B00000208349086074480078042804D101F06F
:1057C000BFFE0120704908706F480078012841D160
:1057D00000208649087086480068401C844908609B
:1057E00008460068022803D100200860FEF752FF37
:1057F000804800688049096888422BDB7D48406802
:105800007D490968884225DB7A4840687A490968F9
:1058100041F64C52114488421CDA01207749086055
:1058200065480078012804D1012280217448FCF7E2
:10583000B3F961480078022804D100228021704821
:10584000FCF7AAF9052050490870012251024F487F
:10585000FCF7A2F94C48007803283ED100206349A8
:1058600008706649086062480068401C604908602A
:10587000084600680A281CDB002008604E480078B3
:10588000012809D1504800685E490968401A4E490C
:105890000860FEF737FF0CE047480078022808D17F
:1058A0004948006858490968084447490860FEF7B4
:1058B00029FF424800685549096888420DD23E4890
:1058C0000078012803D102203B49087002E0012042
:1058D0003949087004202C490870394908680028A3
:1058E00001DB014600E04142B1F5006F39DD264998
:1058F0000978A9B32648006840F2C67188423EDAAA
:105900004348006801283AD10020414908602B48EB
:10591000016820481E4A126840F822103D4800687D
:1059200022491B4A126841F82200174800784FF4B8
:105930007A7110FB01F11E48154A126840F82210D6
:105940001F48006800EB800041001A48104A1268A6
:1059500040F822100E480068401C0D4908600EE017
:10596000FFE70B48006818B1094800680C49086057
:1059700005480078062802D000200549086007B0D5
:1059800030BD0000EC800020B00000200004024088
:1059900000010020F801002025642C006C8100200B
:1059A000080100200A0A0A0A0A0000003821002023
:1059B00078400020B85F00206E00002064000020C6
:1059C000680000208C000020B80000208400002027
:1059D000E8000020EC0000203C00002040000020F7
:1059E000AC000020B400002040420F006D000020F9
:1059F000BC0000209801002030000020CC000020D6
:105A000000180240580000206000002034000020F0
:105A1000040100205801002030B591B0FE48007804
:105A2000012811D1FD48FEA1026803A801F076F813
:105A300003A8FAF708FC85B24FF47A732A4603A943
:105A4000F848FEF73FF800BFF74800780D287DD0F2
:105A5000F6480068401CF5490860F548006844F6BF
:105A60002061884211DAF3480068F3490968084464
:105A7000EA490968884205D2F0480068401CEF49AD
:105A8000086002E00020ED490860E948006849F636
:105A90004041884211DDE7480068E7490968084449
:105AA000DE490968884205D2E4480068401CE349A1
:105AB000086002E00020E1490860E0480068E04931
:105AC0000968884229DD0020FFF74CFCDDA103A80E
:105AD00001F024F803A8FAF7B6FB85B24FF47A7305
