:020000040800F2
:10000000B88500209D010008A5010008A70100088F
:10001000A9010008AB010008AD01000800000000C4
:10002000000000000000000000000000AF01000818
:10003000B101000800000000B3010008074C0008EF
:10004000B7010008B7010008B7010008B7010008B0
:10005000B7010008B7010008B7010008B7010008A0
:10006000B7010008890C0008B7010008890B0008D7
:10007000B7010008B7010008B7010008B701000880
:10008000B7010008990B0008B7010008B701000884
:10009000B7010008B7010008B7010008D90C000833
:1000A000B7010008B7010008B7010008B701000850
:1000B000B7010008F54D00083D520008B7010008DF
:1000C000B7010008B7010008B7010008B701000830
:1000D000B7010008B15F0008B7010008B7010008C8
:1000E000B7010008B7010008B7010008B701000810
:1000F000B7010008B7010008B7010008B701000800
:10010000B7010008B7010008B7010008B7010008EF
:10011000B7010008B7010008B7010008B7010008DF
:10012000B7010008B7010008B7010008B7010008CF
:10013000B7010008B7010008B7010008B7010008BF
:10014000B7010008B7010008B7010008B7010008AF
:10015000B7010008B7010008B7010008B70100089F
:10016000B7010008B7010008B7010008B70100088F
:10017000B7010008B7010008B7010008000000003F
:10018000B7010008B7010008DFF80CD000F03CFB15
:10019000004800475D690008B88500200648804790
:1001A00006480047FEE7FEE7FEE7FEE7FEE7FEE75C
:1001B000FEE7FEE7FEE7FEE7F54C000889010008D0
:1001C0002DE9F05F0546002092469B46884606468C
:1001D000814640241BE0284641464746224600F01F
:1001E0002CFA53465A46C01A914110D3114618466C
:1001F000224600F013FA2D1A67EB01084F462246FB
:100200000120002100F00AFA17EB00094E41201EE0
:10021000A4F10104DFDC484631462A464346BDE8E6
:10022000F09F421C10F8011B0029FBD1801A704777
:100230002DE9FE4F804681EA0300C00F0C46009076
:1002400021F0004123F00045B8EB0200A94105D29E
:100250004046214690461C460B46024623F000408D
:10026000104347D0270DC7F30A00C3F30A51029089
:10027000401A019040286BDAC3F3130040F4801B4E
:100280000098924620B10023D2EB030A63EB0B0BDC
:1002900001985946C0F14002504600F0BFF90646A9
:1002A0000D4650465946019A00F0D7F910EB080068
:1002B0006141002487EA115284EAE7731A4340D06F
:1002C000009A62B3019A012A4FEA075215DC001B1B
:1002D00061EB02014FF0004202EA0752CDE9004211
:1002E000001C41F5801132462B4600F00EFA03B097
:1002F000BDE8F08F40462146F9E7001B61EB0201A3
:10030000001C41F5801300185B412018A2F500176E
:1003100047EB030140EAD570B6196D4111E06D0855
:100320004FEA360645EAC0754FEA0752001B61EBFB
:100330000201001C41F5801149084FEA3000001904
:10034000514132462B4603B0BDE8F04F00F0CEB924
:100350000098012240000023D0EB020263EBE0731F
:10036000009821464FEAE074B8EB000061EB04010D
:10037000E9E783F000435BE781F0004158E72DE9AE
:10038000FE4F81EA030404F0004421F00041009490
:100390004FF0000B23F0004350EA01045ED052EA14
:1003A00003045BD0C3F30A54C1F30A552C44A4F2EE
:1003B000F3340194A0FB0254C1F3130141F4801102
:1003C000C3F3130343F4801301FB024400FB034E09
:1003D000840A970A44EA815447EA8357A4FB0768D2
:1003E00002958D0A05FB07854FEA932C04FB0C54FC
:1003F0002705029D4FEA065847EA1637B5EB080570
:100400006EEB070C870E920E47EA811742EA8312C1
:10041000A7FB0201B6EB0B0164EB00042B0D43EAD2
:100420000C335E1844EB1C50DA465146E7FB0201E0
:10043000C5F313044FEA0B3343EA14534FEA043273
:10044000019C43EA0603A4F10C040294009CCDE94C
:1004500000B400F05AF903B0BDE8F08F0020014667
:10046000F9E72DE9F04D81EA030404F0004B21F097
:10047000004514464FF0000A23F0004150EA0502FF
:1004800020D054EA01021DD0C5F30A570246C5F335
:100490001303C1F31300C1F30A5640F4801543F46B
:1004A0008013A7EB0608101BD64608F2FD3873EB45
:1004B000050002D308F1010801E092185B41B8F190
:1004C000000F03DA00200146BDE8F08D00204FF454
:1004D0008011064684460EE0171B73EB050705D313
:1004E000121B63EB050306434CEA010C49084FEA73
:1004F000300092185B4150EA0107EDD152EA030047
:1005000012D082EA040083EA0501084305D0101BDB
:10051000AB4106D20122002306E000224FF0004347
:1005200002E06FF0010253101AEB06004CEB085189
:1005300010EB0A0041EB0B01BDE8F04D00F0D6B81E
:100540000EB5C10F80EAE0700844CA07002140F2EE
:1005500033438DE80E000A460B4600F0D6F803B090
:1005600000BD00F0004230F000400AD0C10D01F59E
:100570006071C0F3160042EA0151C20840071143FE
:10058000704700200146704730B5041E71F1000429
:1005900004DB4FF00044404264EB0101141E73F190
:1005A000000405DB1C464FF00043524263EB04039A
:1005B0008B4208BF824230BD01F0004330B421F0CD
:1005C000004150EA010206D00A0DA2F56072C1F3A3
:1005D0001301002A02DC30BC00207047440F44EABB
:1005E000C104C100E01830BC00EBC25000F047B8B5
:1005F00030B50B46014600202022012409E021FAF3
:1006000002F59D4205D303FA02F5491B04FA02F5EF
:100610002844151EA2F10102F1DC30BD202A04DBC2
:10062000203A00FA02F1002070479140C2F1200305
:1006300020FA03F3194390407047202A04DB203A44
:1006400021FA02F00021704721FA02F3D040C2F1F2
:1006500020029140084319467047202A06DBCB1739
:10066000203A41FA02F043EAE07306E041FA02F36D
:10067000D040C2F12002914008431946704700293A
:10068000A8BF7047401C490008BF20F00100704718
:1006900010B4B0FA80FC00FA0CF050EA010404BF78
:1006A00010BC704749B1CCF1200421FA04F411FACE
:1006B0000CF118BF012121430843A3EB0C01CB1D12
:1006C0004FEA00614FEA102042BF002010BC704783
:1006D00000EBC35010440029A4BF10BC7047401C5D
:1006E000490008BF20F0010010BC704710B5141E6F
:1006F00073F1000408DA401C41F1000192185B41DB
:100700001A4301D120F0010010BD2DE9F04D9246B1
:100710009B4611B1B1FA81F202E0B0FA80F22032C8
:100720009046FFF77BFF04460F4640EA0A0041EA85
:100730000B0153465A46084313D0114653EA0100B1
:1007400019D0C8F140025046FFF777FF05460E4624
:10075000504659464246FFF761FF084305D0012045
:1007600004E020463946BDE8F08D0020054346EA06
:10077000E0762C4337430A986305E40AA0EB0800AF
:100780000022FD0A44EA47540A3002D500200146FF
:10079000E9E7010510196941DDE9084500196941DA
:1007A000BDE8F04DA2E7C1F30A52C1F3130140F2D4
:1007B000FF3341F480119A4202DA0020014670476B
:1007C00040F233439A42A2F2334202DC5242FFF734
:1007D00034BFFFF723BF000030B5041E71F10004E1
:1007E00004DB4FF00044404264EB0101141E73F13E
:1007F000000405DB1C464FF00043524263EB040348
:10080000994208BF904230BD064C074D06E0E068B3
:1008100040F0010394E8070098471034AC42F6D347
:10082000FFF7B6FC106A0008306A000830B58C1873
:1008300010F8012B12F00F0301D110F8013B12093F
:1008400006D110F8012B03E010F8015B01F8015B01
:100850005B1EF9D101E001F8013B521EFBD1A14220
:10086000E6D3002030BD000011B583B05824FF202E
:10087000012103AA0B46CDE9002102900022214666
:10088000014801F0D5F91FBD407F002054494A6856
:1008900022F440324A604A6843681A434A60026858
:1008A000526822F4807203685A60026853680269D1
:1008B00043EA022203685A600268526822F04072DA
:1008C00003685A600268526883681A4303685A6072
:1008D0000268926822F4006203689A600268926873
:1008E000C3681A4303689A603E4B826A9A4218D0E2
:1008F0000268926822F0706203689A6002689268E7
:10090000836A1A4303689A600268926822F0405230
:1009100003689A6002689268C36A1A4303689A601F
:100920000BE00268926822F0706203689A600268C5
:10093000926822F0405203689A600268926822F03E
:10094000020203689A6002689368826943EA42027D
:1009500003689A60026AA2B10268526842F40062B7
:1009600003685A600268526822F4604203685A6061
:1009700002685368426A521E43EA423203685A6070
:1009800005E00268526822F4006203685A60026857
:10099000D26A22F470020368DA620268D36A828B38
:1009A000521E43EA02520368DA620268926822F435
:1009B000007203689A6002689368026B43EA4222FD
:1009C00003689A600268926822F4806203689A6001
:1009D00002689368426943EA822203689A6070471A
:1009E000002301400100000F10B52DED068B2F49AB
:1009F0000868002801DB014600E0414200EE101AC1
:100A0000F8EEC08A29480068002827DB9FED280AF5
:100A1000C8EE800A10EE904A2046FFF7A2FD41EC96
:100A20001A0B9FED240B53EC102BFFF7A8FC41ECA5
:100A3000190BFFF7C1FD08EE100AB7EE000A38EEF9
:100A4000000AB0EE408AB0EE480A05F0F7FAB0EEC0
:100A5000408AB0EE480ABDEC068B10BD9FED140A2B
:100A6000C8EE800A10EE904A2046FFF77AFD41EC6E
:100A70001A0B9FED100B53EC102BFFF780FC41EC91
:100A8000190BFFF799FD08EE100AB7EE000A38EED1
:100A9000000AB0EE408AB0EE480A05F0CFFAB0EE98
:100AA000408AF7EE000A80EE880AD4E7680000204A
:100AB00000007A45B81E85EB51B8BE3F10B5002442
:100AC000012204211C4801F013F8642000F072FE9A
:100AD00000228021194801F00BF8642000F06AFE22
:100AE00001225102154801F003F8642000F062FE73
:100AF00001221102114800F0FBFF642000F05AFEB1
:100B000000224FF480710D4800F0F2FF642000F0E5
:100B100051FE01221102094800F0EAFF642000F0B2
:100B200049FE00BF02E000F00BF8641C0A2CFAD367
:100B3000002004F021F810BD001802400008024017
:100B400038B50E4CE0B28DF80200200A8DF8010095
:100B5000200C8DF8000000220421094800F0C8FF95
:100B60004FF6FF7303226946064801F079FE012221
:100B70000421034800F0BCFF38BD00003200200013
:100B8000001802405480002010B5024800F07CFCA0
:100B900010BD0000947F002010B5024800F074FCE6
:100BA00010BD0000F47F002001460878103818239B
:100BB000B0FBF3F20848805CC865032A05D90868D1
:100BC0006FF30900001D886503E008686FF30900F2
:100BD0008865886D70470000F069000801460020B4
:100BE0008A6A8B69CBB932B1012A0DD0022A03D0AF
:100BF000032A10D10EE000BFCB6A03F08073B3F17B
:100C0000807F00D1012007E0CB6AB3F1C07F00D123
:100C1000012001E000E000BF34E08B69B3F5005F24
:100C20001AD132B1012A07D0022A03D0032A11D1E6
:100C30000AE000BF01200EE0CB6A03F08073B3F13D
:100C4000807F00D1012006E0CB6AB3F1C07F00D1E4
:100C5000012000E000BF15E032B1012A05D0022AD0
:100C600004D0032A0CD103E000BF00BF012008E03C
:100C7000CB6A03F08073B3F1807F00D1012000E0E4
:100C800000BF00BF7047000010B5082000F01AFE3A
:100C900003F0BAFC0A480068401C0949086009488A
:100CA000006818B9084800680649086007480068E5
:100CB000074908600020044908600649086010BD23
:100CC0009C0000208C0000206800002058010020BB
:100CD00090000020E800002010B501204049087075
:100CE00040480078401C3F49087001203E49086098
:100CF000000200F0E7FD00244FF0C04004683B48CC
:100D0000B0FBF4F03A4908603A4800680968401AB4
:100D10003949086039480078012805D13848006809
:100D2000401C3749086004E035480068401E3449DB
:100D300008600020334908603348007805284DD109
:100D40002848007831490968884247DB0020254956
:100D5000087003F011FC29480078012820D12C48A4
:100D600000682C49096808442B490968084424494B
:100D70000968884214DA032023490870274800686C
:100D8000401C2649086000202549086001202549AB
:100D9000086025480068012802D100202249086027
:100DA00016480078022819D12048006819490968B6
:100DB000084419490968081A1149096888420DDD73
:100DC00003201149087015480068401C1349086049
:100DD00000201349086001201249086010BD00007E
:100DE0006C0000206D00002004010020C0FC9B016D
:100DF000640000202C000020240100206E00002050
:100E000068000020EC000020B0000020500000200E
:100E10003C000020240000204C000020E8000020BE
:100E20009C000020AC000020C000002040000020FA
:100E300070B504461D460023B5F5804F13D154F814
:100E400022300C480340D1E9000640EA06108E68C3
:100E500040EA06208E8940EA06408E69304303430B
:100E600044F8223003E06FF0704044F82200002084
:100E700070BD00000000F0CF10B5034600220868E6
:100E800053F8202012480240D1E901042043CC68E5
:100E900020430C6920434C6920438C692043CC6972
:100EA00020430C6A20434C6A20438C6A2043CC6A5E
:100EB0002043CC6B20430C6B2043024388680828F6
:100EC00001D142F04002086843F82020002010BD04
:100ED0008000F0FF30B503460024501C53F820403A
:100EE00004F04044D1E9000540EA05108D6840EA6D
:100EF00005208D8940EA0545088A401E45EA0055CF
:100F0000087D801E45EA00608D6928430443501C1B
:100F100043F82040002030BD70B52DED0A8B042031
:100F200000F06AF80446052000F066F805462846F9
:100F3000FFF706FB41EC1B0B9FED230B53EC102B33
:100F4000FFF71DFA41EC1A0B9FED210B53EC102B10
:100F5000FFF787FA41EC190B9FED1F0B53EC102B99
:100F6000FFF70DFA41EC180BFFF726FB1C49086050
:100F70002046FFF7E5FA41EC1C0B9FED130B53ECF9
:100F8000102BFFF7FCF941EC1B0B9FED110B53EC01
:100F9000102BFFF766FA41EC1A0B9FED120B53EC86
:100FA000102BFFF75EFA41EC190B9FED100B53EC81
:100FB000102BFFF756FA41EC180BFFF7FDFA0D491D
:100FC0000860BDEC0A8B70BD6666666666660A40A0
:100FD000000000000000B0400000000000001840C9
:100FE000940000209A9999999999A93F00000000CE
:100FF00000002640980000201FB50446042C00D1B4
:101000000090052C01D105200090012001900720BF
:10101000029000BF69460E4800F01CF80028F9D184
:101020000B4800F09DF90A21094800F03BF9042C17
:1010300001D104200090052C04D10520009001204E
:1010400000F0B8FB024800F0CBF880B204B010BD4D
:10105000F87E002038B502460020009000BF92F8CC
:101060003C00012801D1022038BD012082F83C005B
:1010700000BF0868092816D91068C0680C780A3CB7
:1010800004EB44050724AC40A0431468E0600C78EE
:101090000A3C04EB44048868A0401468E4682043D8
:1010A0001468E06013E0106800690C7804EB4405F4
:1010B0000724AC40A043146820610C7804EB44047E
:1010C0008868A04014682469204314682061486837
:1010D000072817D21068406B0C79641E04EB840556
:1010E0001F24AC40A04314686063088880B20C7968
:1010F000641E04EB8404A0401468646B20431468ED
:10110000606331E048680D2817D21068006B0C79D5
:10111000E41F04EB84051F24AC40A0431468206343
:10112000088880B20C79E41F04EB8404A0401468A2
:10113000246B20431468206316E01068C06A0C79A1
:101140000D3C04EB84051F24AC40A0431468E0620E
:10115000088880B20C790D3C04EB8404A04014682C
:10116000E46A20431468E062194B1A4C1068A042EC
:1011700006D10868122803D1586840F480005860EE
:10118000144C1068A0421CD10868102802D00868CE
:10119000112816D1586840F40000586008681028DB
:1011A0000FD10D4800680D4CB0FBF4F000EB80004F
:1011B0004000009002E00098401E00900098002837
:1011C000F9D100BF002082F83C0000BF00BF4BE710
:1011D00000230140002001409001002040420F0008
:1011E00001460868C06C704770B5044600250CB90C
:1011F000012070BD1549A06A884200D000BF206C54
:1012000030B90020606484F83C00204600F020F8EB
:10121000206C00F0100088B9206C20F4885040F059
:10122000020020642046FFF731FB00206064206C40
:1012300020F0020040F00100206400E0012500BF22
:10124000002084F83C0000BF2846D2E70100000FD0
:1012500010B586B0044610492068884219D100BFF5
:10126000002000900D48006840F480600B49086041
:101270000846006800F48060009000BF00BFC020F6
:101280000190032002900020039001A9044800F07F
:1012900027FB06B010BD0000002201404438024088
:1012A0000014024070B504460D4600262068806890
:1012B00000F4806078B12068806800F4807050B1DC
:1012C000206C40F02000206400BF002084F83C0027
:1012D00000BF012070BD00F011FC064612E0681C42
:1012E00080B125B100F00AFC801BA8420AD9206C0D
:1012F00040F00400206400BF002084F83C0000BFE0
:101300000320E7E72068006800F002000228E6D129
:101310006FF0120021680860206C40F400702064B7
:101320002068806800F04050B8B9A069A8B920686A
:10133000C06A00F4700020B12068806800F480600A
:1013400058B9206C20F480702064206C00F4805028
:1013500018B9206C40F0010020640020BAE70000BA
:1013600008B501460020009000BF91F83C0001281C
:1013700001D1022008BD012081F83C0000BF0868AF
:10138000806800F00100A0B90868806840F00100A2
:101390000B6898602E4800682E4BB0FBF3F000EB12
:1013A0004000009002E00098401E00900098002845
:1013B000F9D10868806800F00100002845D0086C69
:1013C00040F20163984340F4807008640868406804
:1013D00000F4806028B1086C20F4005040F4805084
:1013E0000864086C00F4805020B1486C20F00600BE
:1013F000486401E00020486400BF002081F83C0000
:1014000000BF154A6FF022000B681860506800F0AA
:101410001F0058B90868806800F04050A8B90868F3
:10142000806840F080400B6898600EE00B4B0868C5
:1014300098420AD10868806800F0405028B90868CE
:10144000806840F080400B689860002092E70000C0
:101450009001002040420F00002301400020014085
:10146000014691F83500022803D08020486501200C
:101470007047052081F835000868006820F00100F9
:101480000A6810600020F3E7F8B5044600200090D9
:101490008C4800684FF41651B0FBF1F7A56D2E682B
:1014A00094F85C1008208840304098B120680068AB
:1014B00000F0040070B12068006820F0040021688A
:1014C000086094F85C1008208840A860606D40F0C7
:1014D0000100606594F85C1001208840304068B1DC
:1014E0002068406900F0800040B194F85C10012051
:1014F0008840A860606D40F00200606594F85C1060
:1015000004208840304068B12068006800F0020084
:1015100040B194F85C1004208840A860606D40F0F1
:101520000400606594F85C1010208840304078B367
:101530002068006800F0080050B394F85C10102098
:101540008840A8602068006800F4802080B120688E
:10155000006800F4002028B9206CC8B12046216C36
:10156000884715E0A06C98B12046A16C88470FE031
:101570002068006800F4807028B92068006820F0B6
:10158000080021680860206C10B12046216C884753
:1015900094F85C10202088403040002865D02068F6
:1015A000006800F0100000285FD094F85C10202044
:1015B0008840A86094F83500052828D12068006884
:1015C00020F01600216808602068406920F0800043
:1015D00021684861206C08B9A06C28B120680068B7
:1015E00020F008002168086094F85C103F208840D3
:1015F000A86000BF002084F8340000BF012084F8F8
:101600003500206D10B12046216D8847F8BD206857
:10161000006800F4802080B12068006800F4002099
:1016200028B9606C10B12046616C88471DE0E06B02
:10163000D8B12046E16B884717E02068006800F4C5
:10164000807068B92068006820F010002168086088
:1016500000BF002084F8340000BF012084F835006A
:10166000E06B10B12046E16B8847606D38B3606D68
:1016700000F00100F0B1052084F835002068006812
:1016800020F001002168086000BF0098401C009015
:10169000B84200D905E02068006800F00100002889
:1016A000F3D100BF00BF002084F8340000BF012048
:1016B00084F83500E06C10B12046E16C884700BF2B
:1016C000A4E70000900100202DE9F0410446002528
:1016D00000F014FA074614B90120BDE8F081606AF1
:1016E00000B100BF00BF002084F8340000BF02201A
:1016F00084F835002068006820F001002168086047
:101700000AE000F0FBF9C01B052805D92020606520
:10171000032084F83500E0E72068006800F001004D
:101720000028EED12068056821480540D4E9010170
:101730000843E16808432169084361690843A169D6
:101740000843E1690843216A08430543606A0428A5
:1017500003D1D4E90B0108430543206805602068E4
:10176000456925F00705606A0543606A04280DD1C4
:10177000A06A0543E06A48B12046FFF72FFA28B176
:1017800040206065012084F83500A6E720684561A7
:101790002046FFF709FA064694F85C103F2088407F
:1017A000B06000206065012084F83500002094E7D7
:1017B0003F8010F011B5002403E0009800F005F818
:1017C000641CB4F57A7FF8DB18BD71B500210020E8
:1017D0004FF0E0256B695D1C4FF47A76B5FBF6F5AA
:1017E000009E05FB06F400224FF0E025A96910E0F9
:1017F0004FF0E025A86988420BD0884202D20D1A2A
:101800002A4402E01D1A0D442A440146A24200D394
:1018100000E0EDE700BF78BD00B587B02348006861
:1018200008B107B000BD01202049086000BF0020BA
:1018300001901F48006840F001001D4908600846FB
:10184000006800F00100019000BF00BF41F23F00BE
:1018500002900220039000200490032005900C20A9
:10186000069002A9134800F03BF84FF4F060029094
:101870000220039000200490032005900C20069085
:1018800002A90D4800F02CF84CF2B300029002209F
:10189000039000200490032005900C20069002A9DC
:1018A000064800F01DF800BFBBE7000088010020DB
:1018B000383802400014024000100240000C024080
:1018C0007047000010B5044604480068204020B16D
:1018D000024804602046FFF7F3FF10BD143C0140AE
:1018E000F8B502460B460025002400200021DCE06C
:1018F000012606FA01F51E6806EA0504AC4273D11A
:101900005E68022E02D05E68122E13D1CF0802F15B
:10191000200656F827004E07F70E0F26BE40B043AC
:101920004F07FF0E1E69BE403043CF0802F120066C
:1019300046F8270010684F000326BE40B0431E79CA
:1019400006F003064F00BE40304310605E68012E73
:1019500008D05E68022E05D05E68112E02D05E6847
:10196000122E13D190684F000326BE40B0434F00A3
:10197000DE68BE4030439060506801268E40B04320
:101980001E79C6F300168E4030435060D0684F0079
:101990000326BE40B0434F009E68BE403043D06037
:1019A0005E6806F08056B6F1805F7DD100BF0026EC
:1019B0000096404E366846F480463E4F3E603E46B6
:1019C000366806F48046009600BF00BF3A4E8F0886
:1019D00056F827008E07370F0F26BE40B043374E0C
:1019E000B24202D1002624E05EE0354EB24201D17F
:1019F00001261EE0334EB24201D1022619E0324EDA
:101A0000B24201D1032614E0304EB24201D1042685
:101A10000FE02F4EB24201D105260AE02D4EB24210
:101A200001D1062605E02C4EB24201D1072600E086
:101A300008268F073F0FBE4030431F4E8F0846F8E1
:101A40002700264E3068A0435E6806F48036B6F55F
:101A5000803F00D12043214E3060361D3068A043C6
:101A60005E6806F40036B6F5003F00D120431B4EF9
:101A7000361D3060361D3068A0435E6806F480165F
:101A8000B6F5801F00D12043144E08363060361D55
:101A90003068A0435E6806F40016B6F5001F00D15A
:101AA00020430E4E0C363060491C1029FFF420AF45
:101AB000F8BD0000443802400838014000000240F0
:101AC0000004024000080240000C024000100240E6
:101AD0000014024000180240001C0240003C01407B
:101AE000024613690B400BB1012000E00020704753
:101AF0000AB1816101E00B0483617047014800680D
:101B0000704700000000002070B504460026002544
:101B10000CB9012070BD94F83D0028B9002084F86C
:101B20003C00204600F048F9242084F83D0020685D
:101B3000006820F001002168086000F081FB054684
:101B40003948B5FBF0F6206846603849606888423D
:101B500001D8701C07E04FF4967070434FF47A710F
:101B6000B0FBF1F0401C216808623049606888428F
:101B70000ED860684000B5FBF0F0C0F30B000428FD
:101B800001D204202DE060684000B5FBF0F028E0B1
:101B9000A06828B9606800EB4000B5FBF0F008E0F1
:101BA000606800EBC00101EB0010B5FBF0F040F401
:101BB0008040C0F30B0008B9012012E0A06828B9EA
:101BC000606800EB4000B5FBF0F008E0606800EBF7
:101BD000C00101EB0010B5FBF0F040F4804040F490
:101BE00000402168C861D4E9070108432168086002
:101BF000D4E90310084321688860D4E9050108434B
:101C00002168C8602068006840F001002168086011
:101C100000202064202084F83D000020206384F808
:101C20003E0000BF76E7000040420F00A0860100A2
:101C30002DE9FC5F04460F4690469946DDE90CAB62
:101C40000E9E0025FFF75AFF054694F83D00202818
:101C50007ED11923012256492046009501F0FDFC52
:101C600010B10220BDE8FC9F00BF94F83C000128A1
:101C700001D10220F6E7012084F83C0000BF206873
:101C8000006800F0010028B92068006840F00100F9
:101C9000216808602068006820F4006021680860FE
:101CA000212084F83D00402084F83E00002020647C
:101CB000C4F824A0A4F82AB03E48E062608D2085D4
:101CC0004B46424639462046CDE9006501F02AFCE4
:101CD00080B1206C042806D100BF002084F83C00AD
:101CE00000BF0120BEE700BF002084F83C0000BF19
:101CF0000320B7E733E02A463146204601F041FD94
:101D000060B1206C042807D12068006840F400709E
:101D1000216808600120A5E70320A3E7616A481C49
:101D20006062087821680861208D401E2085608DE2
:101D3000401E608520684069C0F3800078B1208D26
:101D400068B1616A481C606208782168086100E037
:101D50002CE0208D401E2085608D401E6085208DEA
:101D60000028C8D12A463146204601F04BFC60B11C
:101D7000206C042807D12068006840F400702168B6
:101D8000086001206EE703206CE72068006840F4DB
:101D9000007021680860202084F83D00002084F84D
:101DA0003E0000BF84F83C0000BF5BE7022059E71B
:101DB000020010000000FFFF10B586B00446314954
:101DC000206888425CD100BF002000902E48006847
:101DD00040F400102C4908600846006800F4001028
:101DE000009000BF00BFC02001901220029001208F
:101DF0000390032004900420059001A92348FFF7D5
:101E00006FFD2348234908604005486000212148B0
:101E10008160C1604FF48061016100214161816195
:101E2000C16101624162FFF74FFC18B1AF211AA0F6
:101E300004F0EEF800BF1748A063846300BF1448A5
:101E400090301C4908604FF00070486040211948EC
:101E500081600021C1604FF4806101610021416116
:101E60008161C16101624162FFF72EFC18B1C1219D
:101E700009A004F0CDF800BF0E486063846300BF82
:101E800006B010BD0054004040380240000402403B
:101E900010600240947F00202E2E2F5372632F7308
:101EA000746D3332663478785F68616C5F6D73701F
:101EB0002E630000F47F002003480068034909787E
:101EC0000844014908607047000000200800002015
:101ED00010B50D48006840F400700B4908600846D2
:101EE000006840F4806008600846006840F4807034
:101EF0000860032000F0CAF8002000F007F800F0A6
:101F00002BF8002010BD0000003C024070B50446D4
:101F10000E4800784FF47A71B1FBF0F00C49096873
:101F2000B1FBF0F5284600F0B4FD08B1012070BD0A
:101F3000102C07D200222146501E00F068F80548F8
:101F4000046001E00120F2E70020F0E70800002033
:101F5000900100200400002008B500BF0020009080
:101F60002348006840F48040214908600846006822
:101F700000F48040009000BF00BF00BF0020009030
:101F8000081F006840F08050091F0860084600687C
:101F900000F08050009000BF00BF042000F076F8F1
:101FA000002211466FF00B0000F031F800221146BC
:101FB0006FF00A0000F02BF8002211466FF00900C4
:101FC00000F025F800221146501F00F020F80022F2
:101FD0001146101F00F01BF800221146901E00F061
:101FE00016F800221146501E00F011F808BD00003E
:101FF0004438024000BF00F01F0201219140420915
:10200000920002F1E022C2F8001100BF70472DE9F2
:10201000F05F80460D461646002701F081FF074617
:1020200039462A46334601F00700C0F1070ABAF1E3
:10203000040F02D94FF0040A01E0C0F1070AD146AB
:1020400000F1040ABAF1070F02D24FF0000A01E0D2
:10205000A0F1030AD4464FF0010A0AFA09FAAAF1DC
:10206000010A0AEA020A0AFA0CFA4FF0010B0BFA0B
:102070000CFBABF1010B0BEA030B4AEA0B04214604
:10208000404601F055FFBDE8F09F000000BF00F0A2
:102090000702064B19684FF6FF031940044B0B4328
:1020A00043EA0221014B196000BF70470CED00E0CC
:1020B0000000FA0570B504460D460CB9012070BD4C
:1020C0005848006800F00F00A84209D255490D7029
:1020D0000846006800F00F00A84201D00120EEE79A
:1020E000207800F0020002281DD1207800F00400C2
:1020F000042805D14C48006840F4E0504A49086083
:10210000207800F00800082805D14748006840F40E
:102110006040454908604448006820F0F000A1682C
:10212000084341490860207800F00100A8B36068C6
:10213000012807D13C4808380068C0F34040B8B9CE
:102140000120BCE76068022802D06068032807D13C
:10215000354808380068C0F3406048B90120AEE750
:10216000314808380068C0F3400008B90120A6E7EC
:102170002D48006820F00300616808432A49086080
:10218000FFF7BCFC064609E0FFF7B8FC801B41F2F4
:102190008831884202D9032091E707E0224800688D
:1021A00000F00C006168B0EB810FEDD11D480068B4
:1021B00000F00F00A84209D91A490D7008460068BE
:1021C00000F00F00A84201D0012078E7207800F04D
:1021D0000400042807D11448006820F4E050E168A6
:1021E000084311490860207800F00800082808D149
:1021F0000D48006820F46040216940EAC1000A49A6
:10220000086000F03DF808490968C1F30311074A66
:10221000515CC840064908600020FFF777FE0020A7
:102220004DE70000003C024008380240F869000811
:1022300090010020014800687047000090010020D4
:1022400000B5FFF7F7FF04490968C1F38221034A8B
:10225000515CC84000BD000008380240086A000810
:1022600000B5FFF7E7FF04490968C1F34231034AAB
:10227000515CC84000BD000008380240086A0008F0
:102280002DE9F047002400250026A14625480068D6
:1022900000F00C0020B1042805D008283AD105E050
:1022A000DFF8849039E0DFF8849036E01D48001FA5
:1022B000006800F03F041B48001F006800F4800025
:1022C00078B11A481749091F0968C1F38811A0FBA2
:1022D00001700146224600233846FDF771FF05468E
:1022E0000EE011480F49091F0968C1F38811A0FBCE
:1022F00001700146224600233846FDF761FF05467E
:102300000848001F0068C0F30140401C4600B5FBB0
:10231000F6F902E0DFF8109000BF00BF4846BDE8C4
:10232000F0870000083802400024F40040787D0166
:10233000F8B504460CB90120F8BD207800F0010082
:10234000002874D0F948006800F00C0004280DD073
:10235000F648006800F00C00082813D1F348001F6D
:10236000006800F48000B0F5800F0BD1EF4808380A
:102370000068C0F34040002859D06068002856D15A
:102380000120D9E700BF6068B0F5803F08D1E74879
:102390000838006840F48030E449083908601EE0DD
:1023A0006068B0F5A02F0DD1E0480838006840F40F
:1023B0008020DE49083908600846006840F4803013
:1023C00008600CE0D9480838006820F48030D7490C
:1023D000083908600846006820F48020086000BFC3
:1023E000606890B1FFF78AFB054606E0FFF786FBC1
:1023F000401B642801D903209EE7CC4808380068B8
:10240000C0F340400028F1D011E0FFF777FB05460C
:1024100006E0FFF773FB401B642801D903208BE71C
:10242000C24808380068C0F340400028F1D1207845
:1024300000F0020002285FD1BC48006800F00C00E8
:1024400058B1BA48006800F00C0008281CD1B74801
:10245000001F006800F48000B0B9B4480838006874
:10246000C0F3400020B1E068012801D0012063E7FB
:10247000AE480838006820F0F800216940EAC10041
:10248000AA490839086037E0E06800B30120A8498C
:102490000860FFF733FB054606E0FFF72FFB401B04
:1024A000022801D9032047E7A04808380068C0F394
:1024B00040000028F1D09D480838006820F0F8005E
:1024C000216940EAC10099490839086014E00020F8
:1024D00097490860FFF712FB054606E0FFF70EFB81
:1024E000401B022801D9032026E7904808380068DD
:1024F000C0F340000028F1D1207800F0080008283F
:102500002CD16069A8B101208A490860FFF7F6FA6A
:10251000054606E0FFF7F2FA401B022801D9032026
:102520000AE782486C300068C0F340000028F1D010
:1025300014E000207F490860FFF7E0FA054606E056
:10254000FFF7DCFA401B022801D90320F4E67748A4
:102550006C300068C0F340000028F1D1207800F012
:102560000400042870D1002670483830006800F05C
:10257000805090B900BF002000906C48383000684F
:1025800040F080506949383108600846006800F022
:102590008050009000BF00BF01266748006800F42B
:1025A0008070B0B96448006840F480706249086087
:1025B000FFF7A4FA054606E0FFF7A0FA401B022841
:1025C00001D90320B8E65C48006800F48070002858
:1025D000F2D000BFA068012808D1544868300068D4
:1025E00040F001005149683108601DE0A0680528ED
:1025F0000DD14E486830006840F004004B49683106
:1026000008600846006840F0010008600CE0474898
:102610006830006820F001004449683108600846CD
:10262000006820F00400086000BFA068A8B1FFF7B0
:1026300065FA054609E0FFF761FA401B41F288316F
:10264000884202D9032077E626E0384868300068DF
:10265000C0F340000028EED013E0FFF74FFA054624
:1026600008E0FFF74BFA401B41F28831884201D95C
:10267000032061E62D4868300068C0F34000002860
:10268000EFD1012E07D129483830006820F0805062
:1026900026493831086000BFA069B8B323480068F4
:1026A00000F00C0008285ED0A069022846D1002066
:1026B0001F490866FFF722FA054606E0FFF71EFAF3
:1026C000401B022801D9032036E618480838006864
:1026D000C0F340600028F1D1D4E907010843616AE2
:1026E00040EA81110122A06AC2EB500041EA004198
:1026F0002C20005D41EA00600C49091F08600120A0
:102700000B490866FFF7FAF9054607E02DE0FFF7E9
:10271000F5F9401B022801D903200DE603480838CB
:102720000068C0F340600028F1D01EE00838024085
:1027300000004742800E47420070004000200C49D4
:102740000866FFF7DBF9054606E0FFF7D7F9401BFF
:10275000022801D90320EFE506480068C0F3406075
:102760000028F2D101E00120E6E50020E4E50000C8
:10277000000047420038024010B504460CB9012061
:1027800010BD606A00B900BF0021A16294F8510039
:1027900028B9002084F85000204600F033F80220C9
:1027A00084F851002068006820F04000216808602B
:1027B000D4E901010843E1680843216908436169DC
:1027C0000843218B01F400710843E1690843216A41
:1027D0000843A16A0843216808600421A06901EA4E
:1027E0001040616A0843216848602068C06920F48D
:1027F00000602168C86100206065012084F85100F4
:102800000020BDE710B586B0044612492068884212
:102810001DD100BF002000900F48006840F4805098
:102820000D4908600846006800F48050009000BF21
:1028300000BFB020019002200290002003900320EE
:1028400004900520059001A90448FFF749F806B057
:1028500010BD00000030014044380240000002403A
:102860002DE9F84304460D4617461E464FF0000872
:10287000C14600BF94F85000012802D10220BDE8F3
:10288000F883012084F8500000BFFFF737F9804635
:1028900094F85100012802D04FF00209A9E005B1D7
:1028A00017B94FF00109A4E0032084F8510000207B
:1028B00060652563A786E786A063A087E0876064DC
:1028C0002064A068B0F5004F05D12068006840F48E
:1028D0008040216808602068006800F040004028BF
:1028E00005D02068006840F0400021680860E0687A
:1028F000B0F5006F2AD1606810B1E08E012806D1D2
:1029000028882168C860AD1CE08E401EE08619E072
:102910002068806800F00200022807D1288821681A
:10292000C860AD1CE08E401EE0860BE03EB1701C1E
:1029300040B1FFF7E3F8A0EB0800B04202D34FF03C
:10294000030956E0E08E0028E2D129E0606810B16A
:10295000E08E012806D12878216808736D1CE08E6E
:10296000401EE08619E02068806800F0020002281E
:1029700007D12878216808736D1CE08E401EE08620
:102980000BE03EB1701C40B1FFF7B8F8A0EB0800B7
:10299000B04202D34FF003092BE0E08E0028E2D1D1
:1029A0003346012202212046CDF8008002F072F861
:1029B00010B14FF003091CE042463146204602F0B8
:1029C00055F820B14FF001092020606511E0A068A2
:1029D00050B900BF002000902068C06800902068B7
:1029E0008068009000BF00BF606D08B14FF0010922
:1029F00000BF012084F8510000BF002084F850007F
:102A000000BF48463BE770B504460E4615460CB974
:102A1000012070BD94F8490028B9002084F84800CE
:102A2000204600F01CF804F108012068FEF724FAA3
:102A30003146A2682068FEF74DFA2946236BD4E997
:102A40000102FEF7F5F9A168206850F8210040F076
:102A50000100A268216841F822000020D9E710B5E2
:102A60000446FEF7D9FE10BD042808D14FF0E0213E
:102A7000096941F004014FF0E022116107E04FF0D5
:102A8000E021096921F004014FF0E0221161704753
:102A9000704770B504462546681EB0F1807F01D3AB
:102AA00001200FE0681E4FF0E02148610F214FF038
:102AB000FF3001F03DFA00204FF0E021886107204F
:102AC0000861002070BD10B5FFF7E2FF10BD704730
:102AD0007047024600BF92F83800012801D1022059
:102AE0007047012082F8380000BF022082F83900C8
:102AF0001068406820F070001368586010684068E3
:102B00000B681843136858601068806820F08000D4
:102B100013689860106880684B6818431368986061
:102B2000012082F8390000BF002082F8380000BF81
:102B300000BFD5E710B504460CB9012010BD94F8CC
:102B4000390028B9002084F83800204600F00CF83D
:102B5000022084F83900211D206802F0E1FE0120E6
:102B600084F839000020E9E738B504461C4920689C
:102B7000884218D100BF002000901A48006840F039
:102B80000200184908600846006800F00200009042
:102B900000BF00BF002203211D20FFF738FA1D20CF
:102BA000FFF728FA1BE010492068884217D100BFC0
:102BB000002000900B48006840F0040009490860BC
:102BC0000846006800F00400009000BF00BF00222B
:102BD00004211E20FFF71BFA1E20FFF70BFA38BD59
:102BE00000040040403802400008004001460868E8
:102BF000C06840F001000A68D0600868006840F0D2
:102C000001000A681060002070472DE9F041044679
:102C10000D46002600BF94F83800012802D102209A
:102C2000BDE8F081012084F8380000BF022084F85C
:102C300039002068866826F0770626F47F462068EB
:102C40008660286850283BD00CDC202860D004DC4B
:102C5000002853D0102865D155E030285DD0402899
:102C600060D141E0602835D070280DD0B0F5805F8C
:102C700003D0B0F5005F55D115E02068806820F0E2
:102C80000700216888604EE0D5E902136A68206871
:102C900002F0B8FE2068866826F0770646F07706D0
:102CA000206886603FE0D5E902136A68206802F078
:102CB000A9FE2068806840F480402168886032E086
:102CC000EA686968206802F0B3FE5021206802F0CB
:102CD000A5FE28E0EA686968206802F0BEFE60216F
:102CE000206802F09BFE1EE0EA686968206802F036
:102CF0009FFE4021206802F091FE14E00021206830
:102D000002F08CFE0FE01021206802F087FE0AE03E
:102D10002021206802F082FE05E03021206802F0C8
:102D20007DFE00E000BF00BF012084F8390000BF35
:102D3000002084F8380000BF00BF71E7704710B56D
:102D4000044620680069C0F34000D8B12068C0681C
:102D5000C0F34000B0B16FF00200216808610120AB
:102D600020762068806900F0030018B12046FFF744
:102D7000E5FF05E0204600F0ADF8204600F0ABF896
:102D80000020207620680069C0F38000D8B1206858
:102D9000C068C0F38000B0B16FF004002168086122
:102DA000022020762068806900F4407018B1204627
:102DB000FFF7C4FF05E0204600F08CF8204600F045
:102DC0008AF80020207620680069C0F3C000D8B1DE
:102DD0002068C068C0F3C000B0B16FF0080021687F
:102DE0000861042020762068C06900F0030018B153
:102DF0002046FFF7A3FF05E0204600F06BF82046D1
:102E000000F069F80020207620680069C0F3001007
:102E1000D8B12068C068C0F30010B0B16FF01000E6
:102E200021680861082020762068C06900F440709D
:102E300018B12046FFF782FF05E0204600F04AF86F
:102E4000204600F048F8002020762068006900F055
:102E5000010058B12068C06800F0010030B16FF087
:102E6000010021680861204600F036F820680069FA
:102E7000C0F3C01058B12068C068C0F3C01030B1B2
:102E80006FF08000216808612046FFF720FE20686F
:102E90000069C0F3801058B12068C068C0F380108A
:102EA00030B16FF0400021680861204600F015F84D
:102EB00020680069C0F3401058B12068C068C0F3B2
:102EC000401030B16FF02000216808612046FFF704
:102ED000FFFD10BD70477047704770477047000096
:102EE0002DE9F0470446206805682068C668206818
:102EF00047694FF00008C14605F00F08B8F1000F10
:102F00000AD105F0200038B106F0200020B120469B
:102F100002F0E3FDBDE8F087B8F1000F6DD007F0D7
:102F2000010018B906F49070002866D005F0010081
:102F300030B106F4807018B1E06B40F00100E0633E
:102F400005F0040030B107F0010018B1E06B40F06B
:102F50000200E06305F0020030B107F0010018B193
:102F6000E06B40F00400E06305F0080030B107F0CA
:102F7000010018B1E06B40F00800E063E06B68B35B
:102F800005F0200028B106F0200010B1204602F024
:102F9000A4FD20684069C0F38019E06B00F00800D0
:102FA00010B9B9F1000F22D0204602F076FD20685A
:102FB000406900F04000B0B12068406920F0400056
:102FC00021684861606B50B11748616B0865606BA0
:102FD000FEF746FA10B1606B016D88470CE02046A1
:102FE000FFF77CFF08E02046FFF778FF04E020466B
:102FF000FFF774FF0020E0638CE705F0800030B13C
:1030000006F0800018B1204602F068FF82E705F064
:10301000400030B106F0400018B1204602F04DFDEE
:1030200078E700BF76E70000875A000810B504462D
:103030000CB9012010BDA06900B100E000BF94F8F8
:10304000390028B9002084F83800204600F028F81C
:10305000242084F839002068C06820F400502168DA
:10306000C860204602F086FD2068006920F4904088
:10307000216808612068406920F02A0021684861C1
:103080002068C06840F400502168C8600020E063F8
:10309000202084F8390084F83A000020CAE70000B4
:1030A00010B586B0044616492068884226D100BF74
:1030B000002000901348006840F01000114908609B
:1030C0000846006800F01000009000BF00BF4FF4F9
:1030D000C060019002200290012003900320049020
:1030E0000720059001A90848FEF7FAFB00221146C7
:1030F0002520FEF78CFF2520FEF77CFF06B010BDD3
:1031000000100140443802400000024010B5034660
:1031100093F83A00202829D101B10AB9012010BD45
:1031200000BF93F83800012801D10220F7E7012001
:1031300083F8380000BF99629A85DA850020D86349
:10314000222083F83A0000BF002083F8380000BF37
:103150001868406940F001001C6860611868C06828
:1031600040F490701C68E0600020D8E70220D6E7A9
:1031700070B505469848854270D198480078401C43
:10318000964908700846007801280ADD94480078BE
:10319000392803DC92480078302802DA01208F4970
:1031A00008708F4801788D480078401E8D4A115470
:1031B0008A48007806287DD100208849087010468A
:1031C0004078303842F2107110FB01F110468078DF
:1031D000303800EB4002C2EBC01001EBC001814867
:1031E000C078303800EBC00202EB001001EB800128
:1031F0007C480079303800EB800001EB40017948D1
:10320000407930380C18774800784D2806D0764839
:103210000068012802D100207349086071480078D5
:103220002B38292819D2DFE800F020CF26CFCFCFC6
:10323000CFCFCFCFCFCFCFCFCFCFCFCFCFCFCFCF9E
:103240002D737E89949F4AAAB54D15345464CB5191
:10325000C01D1A00002065490870B5E0BBE0644855
:103260000460B1E063480460AEE00E205F4908707E
:1032700061480460A8E00E205C49087060425E4925
:103280000860A1E05D48046001460878FDF7ECFAAB
:103290009AE054484079302804D10122110258485C
:1032A000FEF726FC4F484079312807D100224FF421
:1032B000807100E08AE05248FEF71AFC84E0514831
:1032C000046081E00620494908707DE04E480460B2
:1032D0007AE04D204D494E4A126888544C480068A7
:1032E000401C4B49086040480068401C3E4908604B
:1032F0006AE04E214548464A1268815444480068B5
:10330000401C434908604FF0FF30374908605BE0DC
:1033100042203E493E4A126888543D480068401C9D
:103320003B49086050E043213848394A12688154CB
:1033300037480068401C3649086045E0442033495E
:10334000334A1268885432480068401C304908608B
:103350003AE045202D492E4A126888542C480068CE
:10336000401C2B4908602FE046202849284A126853
:10337000885427480068401C2549086024E04821FB
:103380002248234A1268815421480068401C204981
:10339000086019E049201D491D4A126888541C48DC
:1033A0000068401C1A4908600EE051211748184A6D
:1033B0001268815416480068401C1549086003E0F3
:1033C00001201449087000BF00BF00BF012204495A
:1033D0000148FFF79BFE70BD24810020D70000202C
:1033E000D6000020D0000020C0000020B000002047
:1033F000180000201C0000204C00002014000020B9
:10340000001402402000002024000020C4010020FD
:10341000A4000020840100202DE9F84304460D4655
:1034200016461F464FF0000994F8390020285CD159
:1034300005B116B90120BDE8F88300BF94F8380043
:10344000012801D10220F6E7012084F8380000BFEE
:103450000020E063212084F83900FEF74FFB81460D
:10346000A684E6842BE0E08C401EE084A068B0F5E2
:10347000805F16D14B46002280212046009702F043
:1034800061FD08B10320D6E7A846B8F80000C0F3F4
:10349000080021684860206908B9AD1C0FE06D1C68
:1034A0000DE04B46002280212046009702F04AFDA5
:1034B00008B10320BFE715F8010B21684860E08CD4
:1034C0000028D0D14B46002240212046009702F030
:1034D00039FD08B10320AEE7202084F8390000BF91
:1034E000002084F8380000BFA5E70220A3E770475A
:1034F000014608684069C0F3802088B16FF480609D
:103500000A6850610420086400200863202081F8C4
:103510003D0000BF002081F83C0000BF0120704743
:103520000020FCE72DE9F8430446884615469946F5
:10353000DDE908672068006840F480702168086051
:10354000334600224FF001112046009700F085F825
:1035500010B10320BDE8F88308F0FE00216808617F
:103560003B4632462649204600F0B5F830B1206C83
:10357000042801D10120EDE70320EBE700BF002084
:10358000009020684069009020688069009000BF2A
:1035900000BF3A463146204600F0F3F860B1206C97
:1035A000042807D12068006840F400702168086092
:1035B0000120CFE70320CDE7B9F1010F03D1E8B235
:1035C0002168086119E0C5F30720216808613A46BF
:1035D0003146204600F0D5F860B1206C042807D1B0
:1035E0002068006840F40070216808600120B1E79D
:1035F0000320AFE7E8B2216808610020AAE70000D5
:103600000200010070B504460D4616461DE0204636
:10361000FFF76EFF08B1012070BD681CA8B125B18D
:10362000FEF76CFA801BA8420FD9206C40F02000F6
:10363000206400202063202084F83D0000BF00208B
:1036400084F83C0000BF0320E6E720684069C0F32F
:1036500080000028DBD00020DEE72DE9F0410446A1
:103660000D4617461E46DDF8188017E0701CA8B1FD
:103670002EB1FEF743FAA0EB0800B0420ED90020AD
:103680002063202084F83D00002084F83E0000BF25
:1036900084F83C0000BF0320BDE8F081C5F307407B
:1036A00001280AD120684069A9B20840A9B288421D
:1036B00001D101200BE0002009E020688069A9B257
:1036C0000840A9B2884201D1012000E00020B842A0
:1036D000CCD00020E0E72DE9F04104460D46164627
:1036E0001F4631E020684069C0F38020C0B12068E7
:1036F000006840F40070216808606FF48060216801
:1037000048610420206400202063202084F83D00CC
:1037100000BF002084F83C0000BF0120BDE8F0811C
:10372000701C88B126B1FEF7E9F9C01BB0420BD975
:1037300000202063202084F83D0000BF002084F892
:103740003C0000BF0320E9E7C5F3074001280AD188
:1037500020684069A9B20840A9B2884201D101207D
:103760000BE0002009E020688069A9B20840A9B2F6
:10377000884201D1012000E000200028B2D00020C2
:10378000CCE770B504460D4616461DE02046FFF70F
:10379000AFFE08B1012070BD681CA8B125B1FEF7CD
:1037A000ADF9801BA8420FD9206C40F020002064A6
:1037B00000202063202084F83D0000BF002084F812
:1037C0003C0000BF0320E6E720684069C0F3C0105A
:1037D0000028DBD00020DEE71FB519481949086032
:1037E0004FF480304860002116488160012101615A
:1037F000002181610162C162134981620021C160BF
:103800000121C1610021016301214161FDF7ECFC4F
:1038100020B140F201110DA002F0FAFB042000904B
:10382000012001900020029069460648FDF712FC35
:1038300020B140F20B1105A002F0EAFB1FBD000011
:1038400000220140F87E00200100000F2E2E2F5391
:1038500072632F6D61696E2E6300000008B500BFB2
:10386000002000900E48006840F400100C490860E9
:103870000846006800F40010009000BF00BF00225E
:1038800011460B20FEF7C3FB0B20FEF7B3FB002213
:1038900011461120FEF7BBFB1120FEF7ABFB08BD64
:1038A0003038024000B587B04FF02040174908601B
:1038B000174848600020886000211448C1600161F9
:1038C00041618161C161016241628162C1620163E2
:1038D0004163816341640F2000900190FF200290BA
:1038E0000F200390102004901120059000200690D6
:1038F000002269460548FFF786F820B14FF40771AA
:1039000004A002F085FB07B000BD00006481002028
:10391000040100A02E2E2F5372632F6D61696E2E4D
:103920006300000000B587B000BF0020019074481C
:10393000006840F01000724908600846006800F016
:103940001000019000BF00BF00BF0020019008469A
:10395000006840F0200008600846006800F0200081
:10396000019000BF00BF00BF002001900846006822
:1039700040F0800008600846006800F08000019078
:1039800000BF00BF00BF002001900846006840F063
:10399000040008600846006800F00400019000BFC1
:1039A00000BF00BF002001900846006840F0010001
:1039B00008600846006800F00100019000BF00BFE9
:1039C00000BF002001900846006840F00800086031
:1039D0000846006800F00800019000BF00BF00BF6B
:1039E000002001900846006840F04000086008464A
:1039F000006800F04000019000BF00BF00BF002041
:103A000001900846006840F002000860084600681F
:103A100000F00200019000BF00BF00226021394881
:103A2000FEF766F800224FF480713748FEF760F821
:103A3000012206213548FEF75BF800228421344834
:103A4000FEF756F800224FF460713048FEF750F848
:103A5000602002900120039000200490059002A9AC
:103A60002848FDF73DFF4FF480700290012003903D
:103A7000022004900020059002A92348FDF730FFA2
:103A8000062002900120039004900220059002A9D4
:103A90001E48FDF725FF842002900120039000209E
:103AA0000490059002A91A48FDF71AFF4FF484709C
:103AB0000290184803900020049002A91448FDF7D2
:103AC0000FFF4FF4607002900120039000200490DB
:103AD000059002A90D48FDF703FF002202210920ED
:103AE000FEF795FA0920FEF785FA0022012117203A
:103AF000FEF78DFA1720FEF77DFA07B000BD000033
:103B00003038024000100240001402400008024019
:103B1000001802400000111010B50D480D49086052
:103B20000D48486000210B488160C1604FF480411E
:103B30000161002141618161C1610162FDF7E4FF22
:103B400020B140F21F1105A002F062FA10BD000082
:103B500000540040407F0020A08601002E2E2F53ED
:103B600072632F6D61696E2E6300000010B51148FD
:103B7000114908604FF4827048604FF400410E48CC
:103B800081600021C160016101214161890481617D
:103B90001021C16100210162416281620A21C1627A
:103BA000FEF7EAFD20B140F2371104A002F030FA2E
:103BB00010BD000000300140548000202E2E2F53F5
:103BC00072632F6D61696E2E6300000000B587B0CF
:103BD0001748184908605420486000211548816042
:103BE0000121C16000210161FEF7A4FF20B14FF463
:103BF000A57111A002F00CFA4FF48050039003A9B4
:103C00000C48FFF702F820B14FF4A8710AA002F0A7
:103C1000FFF900200190029001A90648FEF759FF24
:103C200020B140F2571104A002F0F2F907B000BD34
:103C300000040040AC8000202E2E2F5372632F6DA5
:103C400061696E2E6300000000B587B017481849FF
:103C50000860542048600021154881606421C160DB
:103C600000210161FEF766FF20B14FF4B57111A08C
:103C700002F0CEF94FF48050039003A90C48FEF7F0
:103C8000C4FF20B14FF4B8710AA002F0C1F90020BE
:103C90000190029001A90648FEF71BFF20B140F2F7
:103CA000771104A002F0B4F907B000BD000800408D
:103CB000E88000202E2E2F5372632F6D61696E2EC7
:103CC0006300000010B50D480D4908604FF4E13065
:103CD000486000210A488160C16001610C21416196
:103CE000002181614FF40041C161FFF79FF920B1CC
:103CF0004FF4C57103A002F08BF910BD0010014014
:103D0000248100202E2E2F5372632F6D61696E2E39
:103D1000630000002DE9F0472DED048B92B00446BE
:103D20000D4690461E464FF0000A002746B9D5F8CA
:103D300000904B46424650A105A802F06BF900BF27
:103D4000012E15D1D5F80090B9F1000F05DB4B46D7
:103D500042464BA105A802F05DF9B9F1000F06DA61
:103D6000C9F10003424648A105A802F053F900BF7B
:103D7000022E10D195ED000A10EE109A4846FCF77D
:103D8000F0FB41EC180B8DED008B424640A105A8DD
:103D900002F040F900BF032E2AD195ED000AB0EEE3
:103DA000408AB5EEC08AF1EE10FA0CDB18EE100A6C
:103DB000FCF7D7FB41EC190B8DED009B424636A179
:103DC00005A802F027F9B5EEC08AF1EE10FA0ED27E
:103DD000B1EE480A10EE100AFCF7C3FB41EC190BD8
:103DE0008DED009B42462EA105A802F013F900BFFD
:103DF0004FF0000906E005A810F809003844C7B2E2
:103E000009F1010905A8FCF70CFA4845F3D83A4630
:103E100025A102A802F0FEF84FF000090EE0B9F16A
:103E2000000F03D13F2004F8090005E0A9F10100CB
:103E300005A9085C04F8090009F1010905A8FCF7C7
:103E4000F0F9401C4845EAD805A8FCF7EAF9401CFF
:103E50009DF80910215405A8FCF7E3F9801C2321E3
:103E6000215405A8FCF7DDF900F1030A504612B011
:103E7000BDEC048BBDE8F0872563256400000000DD
:103E800025632B256400000025632D2564000000B8
:103E9000256325660000000025632B2566000000D1
:103EA00025632D25660000002530325800000000F3
:103EB00010B514480078012809D113480068134947
:103EC000096808441049086000F046F80CE00D4805
:103ED0000078022808D10C4800680D490968401A8A
:103EE0000949086000F038F80A48007848B10A48E3
:103EF0004068094908600948006848600020054991
:103F0000087010BD6E000020B80000205400002092
:103F10005C0000206C00002098010020640000205C
:103F200002480068C0F30220704700000CED00E07A
:103F300010B5002807DA0A07140E054A00F00F032F
:103F40001B1FD45403E00A07130E024A135410BD7A
:103F500018ED00E000E400E010B52DED028B2D48D7
:103F600000682D490968484300EE100AB8EEC00AFF
:103F70002A48D0ED000A20EE200AB2EE041AC0EE64
:103F8000010A274890ED000AB8EEC00A70EE800AD8
:103F9000244890ED000AB8EEC00A30EE800ABDEE6B
:103FA000C00A214880ED000AFCF71EFDB0EE408AF1
:103FB0001D4800681D490968401A00EE100AF8EE15
:103FC000C00A1A4890ED000AB8EEC00A00EE880A4E
:103FD000BDEEC00A144880ED000A00681449096863
:103FE0004942884204DA1248006840420E4908609B
:103FF0000D4800680E490968884203DD0C480068D6
:10400000094908600848006800F0B6FDBDEC028B65
:1040100010BD000050010020680000202800002092
:104020004C010020B8000020580100209000002022
:10403000440000203048006830490968401A30497F
:1040400008602D4800682D490968022202FB110012
:104050002C49096808442C49086028480068294907
:1040600008602548006825490860254800682749F8
:104070000968484300EE100AB8EEC00A2448D0EDA3
:10408000000A20EE200ABDEEC00A1D4880ED000A9D
:10409000194800681F490968484300EE100AB8EE45
:1040A000C00A1B48D0ED000A20EE200ABDEEC00A6F
:1040B000114880ED000A1448006817490968484310
:1040C00000EE100AB8EEC00A1148D0ED000A20EE4A
:1040D000200ABDEEC00A0C4880ED000A08480068BE
:1040E000054909680844084909680844642190FBA7
:1040F000F1F00A49086070472401002030010020D7
:10410000280100203401002020010020400100206F
:104110002800002044010020480100202C0100203C
:1041200040F6C410E1490860C820E149086040F247
:104130005F50E04908600220DF490860B7EE000ADE
:10414000DE4880ED000ADE48006841F64C52811AD4
:1041500090426ED00ADC012817D0A0F6C4100028C7
:1041600068D0A0F6C41000287ED1DFE0A1F6C4100C
:1041700000287AD0A0F51C50103800285BD0A0F59C
:104180009C4020380028EFD128E0CE48CE49086076
:104190006420CE49086040F2DC50CD4908606420BC
:1041A000CC49086040F2DC50CB4908600520CB497F
:1041B00008604FF4AA60CA4908604420C9490860F1
:1041C0008820C9490860FA20C8490860BD48C84924
:1041D00008604FF47A60C7490860FCE049F6404047
:1041E000B94908603220B94908604FF49670B8495F
:1041F00008603220B74908604FF49670B6490860ED
:104200000520B649086040F2D640B5490860442010
:10421000B44908608820B4490860B420B3490860F4
:1042200049F64040B24908604FF47A60B1490860ED
:10423000D1E053E0A2E044F62060A34908600520E5
:10424000A24908609620A24908600520A14908609B
:104250009620A14908600220A049086040F24C4025
:104260009F490860222001E0B0E00FE09D4908600E
:104270009D490860FA209D49086044F620609C49E9
:1042800008604FF47A609B490860A4E042F2107025
:104290008D49086004208D49086096208C4908608B
:1042A00004208C49086096208B49086001208B49C6
:1042B000086040F24C408A49086022208949086021
:1042C00089490860FA208949086042F210708849DB
:1042D00008604FF47A60874908607CE041F64C50F2
:1042E00079490860042079490860192078490860F4
:1042F000042078490860192077490860012077492F
:10430000086040F24C4076490860222075490860F8
:1043100075490860FA207549086041F6E84074491B
:10432000086040F6B8307349086054E041F28830C4
:104330006549086003206549086096206449086063
:10434000032064490860962063490860012063499E
:10435000086040F24E2062490860142061490860FC
:1043600061490860FA206149086041F224306049DF
:10437000086040F6B8305F4908602CE040F6C41091
:1043800051490860032051490860FA2050490860EB
:10439000032050490860FA204F49086001204F4926
:1043A000086040F24E204E4908600E204D490860DA
:1043B0004D490860FA204D4908604FF416604C4999
:1043C000086040F2DC504B49086004E041F64C5074
:1043D0003B49086000BF00BF47480068502863DCC5
:1043E0004648007802282DD145480068012829D187
:1043F00049F64040344908601E20344908604FF4B3
:104400009670334908601E20324908604FF4967058
:104410003149086005203149086040F2D6403049F2
:10442000086044202F49086088202F490860B42084
:104430002E49086049F640402D4908604FF47A60E3
:104440002C4908602D48007801282DD12C4800689F
:10445000022829D149F640401B4908601E201B490B
:1044600008604FF496701A4908601E2019490860C8
:104470004FF496701849086005201849086040F20A
:10448000D64017490860442016490860882016491C
:104490000860B4201549086049F640401449086096
:1044A0004FF47A601349086070470000F000002064
:1044B000F4000020F8000020FC000020280000206C
:1044C00018000020701101002C0000205400002072
:1044D000580000205C0000206000002050000020F8
:1044E000400100204401002048010020500100202C
:1044F00030000020340000201C0000206E0000204E
:104500002000002000200E4908600E4908600E4976
:1045100008600E4908600E4908600E4908600E499F
:1045200008600E4908600E4908600E4908600E4890
:104530000E4908600E4908600E4908607047000087
:104540003001002034010020380100203C0100200F
:104550002001002024010020280100202C0100203F
:10456000BC0000204C010020FFFF07005401002088
:104570005C0100204400002010B5FFF75BFD1D48E2
:1045800000681D490968884204DD1B480068194914
:1045900008600BE0174800681749096849428842DB
:1045A00004DA154800684042124908601348007850
:1045B000012805D1124800680E490968441804E032
:1045C0000F4800680B490968441A0E4800684042C9
:1045D000844203DA0B480068444205E00948006859
:1045E000844201DD0748046805480460FFF7B4FC15
:1045F000012010BD2C0100205C0100206E00002075
:10460000B8000020540100202E480068282825D03A
:1046100006DC05280CD00A2812D014283AD116E05E
:10462000502822D0A02827D0B0F5A07F32D12AE090
:104630004FF48040244908604000244908602DE080
:104640004FF48040204908602049086026E04FF47C
:1046500000501D4908601D4908601FE04FF480505C
:10466000194908601949086018E04FF400601649BC
:1046700008601649086011E04FF480601249086034
:10468000124908600AE04FF400700F4908600F49B2
:10469000086003E028200B49086000BF00BF0C48F9
:1046A0000068022806DB4FF40070074908600749DC
:1046B000086006E006480068002802DA0020044985
:1046C000086070471C0000203C00002040000020D3
:1046D000C000002070B52DED0A8B04460D4694ED08
:1046E000000AB0EE408A95ED000A10EE106A3046DE
:1046F000FBF737FF41EC1C0B9FED2D0B53EC102B00
:10470000FBF73DFE41EC1B0B9FED2B0B53EC102BED
:10471000FBF72FFE41EC1A0BFBF74EFF09EE100AD8
:10472000274890ED000A20EE080A20EE080A2548E6
:10473000D0ED000A00EE880A2348D0ED000A30EEE2
:10474000200AF0EE409AB3EE090A39EE401A1F48EB
:1047500090ED000A1E48D0ED000A00EE880AF0EE47
:10476000690A41EE000AF0EE608A9FED1A0AF4EE43
:10477000C08AF1EE10FA03DD9FED160AF0EE408AD2
:1047800018EE900AFBF7EDFE41EC1A0B9FED120BB1
:1047900053EC102BFBF7F8FE03D29FED110AF0EE5D
:1047A000408A85ED009AC4ED008ABDEC0A8B70BD8D
:1047B0007B14AE47E17A843F52B81E85EBD143406B
:1047C0006801002064010020600100206C010020CD
:1047D000700100200000C8429A9999999999B93FAF
:1047E000CDCCCC3D2DE9F0470646884691460024C5
:1047F00000F0A4F8B9F1000F03D0B9F1010F0CD10A
:1048000005E0032000F0E0F82044C4B205E00520F4
:1048100000F0DAF82044C4B200BF00BF00F09EF9F7
:10482000012240211548FDF763F900F089F90027BE
:1048300007E040211148FDF753F9054605B903E0AB
:104840007F1C0F488742F4D300BF40210B48FDF77F
:1048500047F905460DB1601CC4B2012000F012F802
:104860007070012000F00EF83070002000F00AF89F
:1048700088F800002046BDE8F087000000100240E4
:10488000007102002DE9F0410646002700F066F9AC
:10489000012240212848FDF72BF90A20FCF795FF5B
:1048A00000F04EF980241BE0012220212248FDF770
:1048B0001FF90A20FCF789FF40211F48FDF710F976
:1048C000054605B12743002220211B48FDF710F9BA
:1048D0000A20FCF77AFF204604EBD071C1F34704AD
:1048E000002CE1DC00F03AF92EB100224021124800
:1048F000FDF7FEF804E0012240210F48FDF7F8F82B
:10490000012220210C48FDF7F3F80A20FCF75DFF97
:10491000002220210848FDF7EBF80A20FCF755FF9C
:10492000012240210448FDF7E3F80A20FCF74DFF7F
:104930003846BDE8F08100000010024010B500F0DC
:104940000DF9012240211F48FDF7D2F80A20FCF79B
:104950003CFF002220211B48FDF7CAF80A20FCF783
:1049600034FF012220211748FDF7C2F80A20FCF786
:104970002CFF002240211348FDF7BAF80A20FCF76B
:1049800024FF002220210F48FDF7B2F80A20FCF78F
:104990001CFF012220210B48FDF7AAF80A20FCF792
:1049A00014FF012240210748FDF7A2F80A20FCF776
:1049B0000CFF002220210348FDF79AF80A20FCF79B
:1049C00004FF10BD0010024070B50546002600F03F
:1049D000C5F8802425E004EA050028B10122402121
:1049E0002148FDF785F804E0002240211E48FDF72C
:1049F0007FF80A20FCF7E9FE012220211A48FDF782
:104A000077F80A20FCF7E1FE002220211648FDF786
:104A10006FF80A20FCF7D9FE204604EBD071C1F3F1
:104A20004704002CD7DC012240210F48FDF760F835
:104A300000F086F80A20FCF7C8FE012220210A486F
:104A4000FDF756F80A20FCF7C0FE40210648FDF7A6
:104A500047F80646002220210348FDF749F80A20BE
:104A6000FCF7B3FE304670BD00100240F8B50446B6
:104A70000D4616462B46002280212046009600F067
:104A800009F828B1606D40F0200060650320F8BD92
:104A90000020FCE72DE9F04104460E4617461D466E
:104AA000DDF818803FE0681CE0B32DB1FDF726F873
:104AB000A0EB0800A84236D32068406820F0E00050
:104AC000216848606068B0F5827F0DD1A068B0F5BC
:104AD000004F03D0A068B0F5806F05D12068006852
:104AE00020F0400021680860A06AB0F5005F0ED198
:104AF00000BF206800684DF6FF710840216808601B
:104B00002068006840F400502168086000BF012060
:104B100084F8510000BF002084F8500000BF03203B
:104B2000BDE8F081FFE7206880683040B04201D1E5
:104B3000012000E00020B842B5D10020F0E70000DD
:104B400000B585B0402000900020019069460248E1
:104B5000FCF7C6FE05B000BD0010024000B585B0F0
:104B6000402000900120019069460248FCF7B8FE01
:104B700005B000BD0010024010B504460249081BF4
:104B800001F01EFA10BD0000FFFF07002DE9F04103
:104B900086B005460E46002402AF0DF1040800223F
:104BA00003A905A8FFF71EFE0444012203A904A8D7
:104BB000FFF718FE04449DF814109DF8150001EB52
:104BC000002000EE100AB8EEC00A8DED020A9DF832
:104BD00010109DF8110001EB002000EE100AB8EE55
:104BE000C00A8DED010A39464046FFF773FD9DED81
:104BF000020A85ED000A9DED010A86ED000A2046B5
:104C000006B0BDE8F08110B5FDF756F9FDF75BFF82
:104C100010BD000010B592B000BF002000902F48DA
:104C2000006840F080502D4908600846006800F098
:104C30008050009000BF00BF00BF002000902848B7
:104C4000006840F48040264908600846006800F487
:104C50008040009000BF00BF012006900004079034
:104C600002200C9041050D9119210E914FF4A8716D
:104C70000F91022110910421119106A8FDF758FB14
:104C800018B1CE2117A001F0C3F90F200190022026
:104C90000290002003904FF4A05004904FF48050F5
:104CA0000590052101A8FDF705FA18B1DC210DA03A
:104CB00001F0AEF9FDF7BEFA4FF47A71B0FBF1F4F2
:104CC0002046FDF7E6FE0420FDF7CEFE0022114649
:104CD000501EFDF79CF912B010BD00004038024094
:104CE000007000402E2E2F5372632F6D61696E2E5F
:104CF000630000001448006840F470001249086026
:104D00001248006840F001001049086000200F4977
:104D1000083108600D4800680D4908400B490860DB
:104D20000C48091D0860081F006820F48020091F36
:104D30000860002005490C3108604FF0006002490E
:104D4000803908607047000088ED00E000380240BC
:104D5000FFFFF6FE1030002410B50020FFF70CFF17
:104D6000012013490870FFF7CDFB002011490860AE
:104D7000114908601149086011490860114908800B
:104D8000114908601149086011490860114908601B
:104D9000114908601148006811490860114800680D
:104DA000114908600020114908601149086010BDD0
:104DB0006E00002064000020680000208C000020AD
:104DC0004C00002048000020B8000020C400002053
:104DD000CC0000207C000020800000200C0000207F
:104DE00018000020100000201C000020E800002017
:104DF000EC00002030B587B0EC48FDF7A0FFEC4890
:104E0000007806287DD10020FFF7B6FEE94800684B
:104E1000B0F57A7F75DA4FF4FA60E649086000244D
:104E200012E0E54850F82420E4A1684601F0F2F8C9
:104E30006846FBF7F6F985B24FF47A732A4669465D
:104E4000DF48FEF7E9FA641CDE4800688442E8DBCC
:104E5000DDA1684601F0DEF86846FBF7E2F984B2AE
:104E60004FF47A7322466946D548FEF7D5FA0024F6
:104E700012E0D74850F82420D0A1684601F0CAF8C3
:104E80006846FBF7CEF985B24FF47A732A46694635
:104E9000CB48FEF7C1FA641CCA4800688442E8DBCC
:104EA000C9A1684601F0B6F86846FBF7BAF984B2C2
:104EB0004FF47A7322466946C148FEF7ADFA0024E2
:104EC00012E0C44850F82420BCA1684601F0A2F8C2
:104ED0006846FBF7A6F985B24FF47A732A4669460D
:104EE000B748FEF799FA641CB64800688442E8DBCC
:104EF000B5A1684601F08EF86846FBF792F984B2D6
:104F000000E020E04FF47A7322466946AC48FEF791
:104F100083FA002412E0B04850F82420A7A1684684
:104F200001F078F86846FBF77CF985B24FF47A73A4
:104F30002A466946A248FEF76FFA641CA148006839
:104F40008442E8DB00BF9A48007830B9FFF704FFDD
:104F5000FFF7E6F80E2096490870954800780E286D
:104F600022D10020FFF708FE01209C490870FFF7BE
:104F7000C9FA00209A4908609A4908609A4908606D
:104F80009A4908609A4908609A4908609A490860F5
:104F900041F22C2099490860994908600D20844904
:104FA0000870012097490860814800780D2812D1C7
:104FB00095480068401C9449086008460068934979
:104FC000884205D100209049086004207849087083
:104FD00000208449086076480078042804D101F054
:104FE000FBFC01207249087071480078012846D105
:104FF00000208749087087480068401C8549086080
:1050000008460068022803D100200860FEF750FF20
:105010008148006881490968884230DB7E484068E1
:105020007E49096888422ADB7B4840687B490968D9
:1050300041F64C521144884221DA01207849086037
:1050400066480078012809D1012208217548FCF73B
:105050004FFD012280217348FCF74AFD5F4800782C
:10506000022809D1002208216E48FCF741FD0022E8
:1050700080216C48FCF73CFD05204D4908704C48E8
:10508000007803283ED10020614908706449086017
:1050900060480068401C5F490860084600680A28AC
:1050A0001CDB002008604D480078012809D14F48DA
:1050B00000685D490968401A4C490860FEF74CFFDA
:1050C0000CE046480078022808D148480068574953
:1050D0000968084445490860FEF73EFF40480068FB
:1050E0005349096888420DD23C480078012803D111
:1050F00002203A49087002E0012038490870042073
:105100002B49087037490868002801DB014600E098
:105110004142B1F57A7F39DA25490978A9B32548A2
:10512000006840F2C67188423EDA424800680128B1
:105130003AD100203F490860294801681E481D4AAD
:10514000126840F822103C4800682149194A126848
:1051500041F82200164800784FF47A7110FB01F1F3
:105160001C48144A126840F822101E48006800EBE0
:105170008000410018480F4A126840F822100D487C
:105180000068401C0B4908600EE0FFE70948006812
:1051900018B1084800680B490860054800780628DF
:1051A00002D000200349086007B030BDAC80002069
:1051B000B000002000010020F801002025642C0030
:1051C00024810020080100200A0A0A0A0A000000BF
:1051D0003821002078400020B85F00206E000020B9
:1051E00064000020680000208C000020B80000202F
:1051F00084000020E8000020EC0000203C0000209B
:1052000040000020AC000020B400002040420F000D
:105210006D000020BC00002098010020300000201C
:10522000CC00002000180240580000206000002040
:1052300034000020040100205801002030B591B056
:10524000FB480078012811D1FA48FBA1026803A8A5
:1052500000F0E0FE03A8FAF7E4FF85B24FF47A739A
:105260002A4603A9F548FEF7D7F800BFF4480078AE
:105270000D287DD0F3480068401CF2490860F248D0
:10528000006844F62061884211DAF0480068F0496D
:1052900009680844E7490968884205D2ED48006872
:1052A000401CEC49086002E00020EA490860E6483A
:1052B000006849F64041884211DDE4480068E4494D
:1052C00009680844DB490968884205D2E14800685A
:1052D000401CE049086002E00020DE490860DD482B
:1052E0000068DD49096888421EDD0020FFF744FCA4
:1052F000DAA103A800F08EFE03A8FAF792FF85B2A8
:105300004FF47A732A4603A9CC48FEF785F8C948BA
:10531000D4A1026803A800F07DFE0020CD490860FA
:105320000E20C749087000BFC6480068D249096806
:1053300088421CD90020FFF71FFCD0A103A800F071
:1053400069FE03A8FAF76DFF85B24FF47A732A4617
:1053500003A9BA48FEF760F8CAA103A800F05AFEF4
:105360000020B84908600E20B549087000BF00E071
:1053700043E0C8480068C849096888421CDD00202D
:10538000FFF7FAFB0020C3490860C4A103A800F09E
:1053900041FE03A8FAF745FF85B24FF47A732A4617
:1053A00003A9A648FEF738F8BEA103A800F032FE14
:1053B0000E20A349087000BFBE48006802281CDB0D
:1053C0000020FFF7D9FB0020BA490860BAA103A862
:1053D00000F020FE03A8FAF724FF85B24FF47A7399
:1053E0002A4603A99548FEF717F8B5A103A800F0CF
:1053F00011FE0E209249087000BFBE4800680128C7
:105400007ED18B48007801287AD0BB4800680328F9
:1054100076DA08A909A8FFF7B9FBB749086008467A
:10542000006800286DD1B54890ED010A80ED000AB2
:105430008DED040A90ED020A80ED010A8DED050A5A
:105440009DED090A80ED020A8DED060AAC4890ED4B
:10545000010A80ED000A8DED000A90ED020A80ED50
:10546000010A8DED010A9DED080A80ED020A8DED1D
:10547000020A00202DE0002128E004AA02EB8002AD
:1054800092ED000A04AB421C03EB8202D2ED000A4B
:10549000B4EEE00AF1EE10FA17DD04AA02EB800286
:1054A00092ED000A8DED070A421C03EB820292ED99
:1054B000000A04AA02EB800282ED000A9DED070AB1
:1054C000421C03EB820282ED000A491C0229D4DB54
:1054D000401C0228CFDB002030E000212BE06A4690
:1054E00002EB800292ED000A6B46421C03EB820243
:1054F000D2ED000AB4EEE00AF1EE10FA1ADD01E096
:105500002CE01DE06A4602EB800292ED000A8DED70
:10551000030A421C03EB820292ED000A6A4602EB88
:10552000800282ED000A9DED030A421C03EB820219
:1055300082ED000A491C0229D1DB401C0228CCDB89
:105540009DED050A6D4880ED030A9DED010A6C484A
:1055500080ED030A00206749086000BF69480068C1
:10556000002864D0684869490968405C42381028BE
:105570001CD2DFE800F0081C3248D51BFDFC1B1BC9
:105580001BFBFA1B1BF90023422261490CA8FEF702
:10559000C1FB0446A2B24FF47A730CA92748FDF769
:1055A0003BFF5A480068401C5849086089E1FBF7F6
:1055B000B3FC0223432257490CA8FEF7ABFB044679
:1055C000A2B24FF47A730CA91C48FDF725FF4F488F
:1055D0000068401C4D49086073E1FBF79DFC022305
:1055E00044224D490CA8FEF795FB0446A2B24FF4A5
:1055F0007A730CA91148FDF70FFF44480068401C5E
:10560000424908605DE10123452244490CA8FEF7A8
:1056100081FB0446A2B24FF47A730CA90748FDF748
:10562000FBFE3A480068401C3849086049E154E1F3
:10563000840100206400002025642C0024810020C7
:10564000B0000020EC000020180000202C000020FA
:10565000F0000020E4000020F40000203F3232235C
:10566000000000003F73706565644552524F522A36
:1056700025642A230D0A0000F80000203F3333235D
:10568000000000003F70756C73654552524F522AFE
:10569000230D0A00E8000020FC0000203F343423E2
:1056A000000000003F7A65726F4552524F522A2324
:1056B0000D0A00009C0000203F353523000000004B
:1056C0003F7A65726F5F636865636B5F746F6F5F6E
:1056D0006D7563682C706C656173652063686563C4
:1056E0006B207468652064657669636521212A23CF
:1056F0000D0A0000AC000020A0000020B401002032
:10570000A4010020A4000020C4010020A800002063
:105710001C00002094000020980000204C00002075
:105720007048006870B9032346226F490CA8FEF741
:10573000F1FA0446A2B24FF47A730CA96B48FDF754
:105740006BFE0EE06AA10CA800F064FC0CA8FAF74E
:1057500068FD85B24FF47A732A460CA96348FDF7B9
:105760005BFE6548006804E070E05AE040E02BE032
:1057700003E0401C60490860A3E05A48006870B923
:10578000032348225D490CA8FEF7C4FA0446A2B2DE
:105790004FF47A730CA95548FDF73EFE0EE054A174
:1057A0000CA800F037FC0CA8FAF73BFD85B24FF4CB
:1057B0007A732A460CA94D48FDF72EFE4E48006824
:1057C000401C4D4908607CE0002349224C490CA84C
:1057D000FEF7A0FA0446A2B24FF47A730CA943482C
:1057E000FDF71AFE44480068401C4349086068E021
:1057F0004448006802280ED143A10CA800F00AFC1E
:105800000CA8FAF70EFD85B24FF47A732A460CA95C
:105810003648FDF701FE38480068401C36490860EC
:105820004FE03BA10CA800F0F5FB0CA8FAF7F9FC3F
:1058300085B24FF47A732A460CA92C48FDF7ECFD8B
:105840002D480068401C2C4908603AE00AA90BA8C2
:10585000FFF79CF92349086008460068E0B9032374
:1058600046220BA90CA8FEF755FA0446A2B24FF443
:105870007A730CA91D48FDF7CFFD032348220AA91E
:105880000CA8FEF747FA0446A2B24FF47A730CA9AB
:105890001648FDF7C1FD0EE015A10CA800F0BAFBFB
:1058A0000CA8FAF7BEFC85B24FF47A732A460CA90D
:1058B0000E48FDF7B1FD10480068401C0E49086015
:1058C00000BF00BF144800680B490968884204D132
:1058D000002011490860084908601048FDF72FFAB8
:1058E00011B030BDA0000020C001002024810020A4
:1058F0003F3636230D0A0000A8000020B00100202A
:1059000018000020C00000203F3030230D0A0000A6
:105910003F3131230D0A0000A4000020E880002060
:10592000002202682C4B98420ED0B0F1804F0BD071
:105930002A4B984208D02A4B984205D0294B9842CE
:1059400002D0294B984201D1012300E000231BB172
:1059500022F070024B681A431F4B984220D0B0F1DE
:10596000804F1DD01D4B98421AD01D4B984217D026
:105970001C4B984214D01C4B984211D01B4B9842A0
:105980000ED01B4B98420BD01A4B984208D01A4BA2
:10599000984205D0194B984202D0194B984201D138
:1059A000012300E000231BB122F44072CB681A43AC
:1059B00002608B68C3620B688362074B984202D017
:1059C000094B984201D1012300E000230BB10B6980
:1059D000036301234361704700000140000400405D
:1059E00000080040000C004000040140004001405D
:1059F000004401400048014000180040001C0040E5
:105A00000020004030B50C460021816821F47F4120
:105A100042EA032525432943816030BD0A4600211F
:105A2000816821F0700142F00703194381607047DB
:105A300030B50B46144600210022026A056A25F0A3
:105A400001050562816921F0F00141EA041122F0AB
:105A50000A021A438161026230BD30B50B4614461A
:105A600000210022056A25F0100505628169026A9D
:105A700021F4704141EA043122F0A00242EA03120B
:105A80008161026230BD70B50546AC6B0020E085D7
:105A9000E0842046FDF722FA70BD0168C96821F450
:105AA00090710268D1600168496921F001010268C2
:105AB0005161202180F83A10704710B504462068E3
:105AC000C06820F040002168C860202084F83900B8
:105AD0002046FDF70CFD002010BD70B5044694F87B
